:100000000C9462000C948A000C948A000C948A0070
:100010000C948A000C948A000C948A000C948A0038
:100020000C948A000C948A000C948A000C948A0028
:100030000C948A000C948A000C948A000C948A0018
:100040000C9440050C948A000C9441020C948F028D
:100050000C948A000C948A000C948A000C948A00F8
:100060000C948A000C948A000000000024002700F1
:100070002A0000000000250028002B0000000000DE
:1000800023002600290004040404040404040202DA
:100090000202020203030303030301020408102007
:1000A0004080010204081020010204081020000012
:1000B0000007000201000003040600000000000029
:1000C0000000FB0311241FBECFEFD8E0DEBFCDBF81
:1000D00011E0A0E0B1E0ECE2FEE002C005900D927C
:1000E000A83EB107D9F714E0A8EEB1E001C01D9217
:1000F000A639B107E1F710E0C4ECD0E004C02297C4
:10010000FE010E941007C23CD107C9F70E945104AA
:100110000C9414070C940000FC0188279927E8949C
:1001200021912032E9F3293010F02E30C8F32B3220
:1001300041F02D3239F4689404C00E94EA00820F25
:10014000911D219120532A30C0F31EF49095819582
:100150009F4F089548EE51E00E94B8000895FB01BA
:10016000DC018D91019080190110D9F3990B08954C
:10017000009731F4DA018D919C91009709F40EC03B
:10018000DC01FB013D912191222319F03217C9F3C3
:10019000FACF332331F4DA011D921C928827992774
:1001A00008951197AF93BF93FB013D9121913217B1
:1001B00071F4332321F488279927119702C01E92E6
:1001C0001196FA01A193B0839F918F9108952223F4
:1001D00069F7EACF7AE0979F902D879F802D910D48
:1001E00011240895CF93DF9360E071E00E94AA008C
:1001F000EC018BE694E0BE010E94C604CE0162E0F1
:1002000071E00E94AF00009751F480E090E060E060
:1002100071E00E94AA000E948C000E944801CE0159
:100220006DE071E00E94AF00009711F40E949D0103
:10023000CE0166E171E00E94AF00009711F40E94C8
:100240009101CE0160E271E00E94AF00009711F4CD
:100250000E945701CE0169E271E00E94AF00009751
:1002600011F40E94A901CE0165E371E00E94AF0084
:10027000009711F40E945001CE016FE371E00E94DB
:10028000AF00009711F40E944901DF91CF910895CA
:1002900008958BE694E06CE471E00E94C604089532
:1002A0008BE694E06DE571E00E94C6040895CF935B
:1002B000DF938BE694E06DE671E00E94C6048091C6
:1002C000D0010E94BC06EC0181309105A1F480911F
:1002D000CE0161E00E9489068091EA019091EB01D4
:1002E000892B69F7D093EB01C093EA018BE694E088
:1002F00068E771E0E2CF8091CE0160E00E9489065C
:100300008091EA019091EB010197C9F68BE694E0A8
:1003100068E871E00E94C6041092EB011092EA01B5
:10032000CECF8BE694E066E971E00E94C60480912E
:10033000CE0160E00E94890608958BE694E060EAB1
:1003400071E00E94C6048091CE0161E00E9489069E
:1003500008951F938BE694E069EA71E00E94C60459
:1003600011E08091D2010E94BC069093D501809348
:10037000D4010197D1F48091CE0160E00E948906FA
:100380008091D601882371F01092D6018BE694E01B
:1003900065EB71E00E94C60462E370E080E090E0EB
:1003A0000E94BC051093EC01DCCF8091CE0161E08E
:1003B0000E9489068091EC01882399F21092EC0149
:1003C0001093D6018BE694E061EC71E00E94C604C4
:1003D00062E370E080E090E00E94BC05C2CFCF9362
:1003E000DF93CDEED1E08BE694E06AE0AE0123EF3F
:1003F00031E00E940B059093E2038093E103CE016C
:100400000E94F2008091E1039091E203892B61F058
:1004100084EF91E0FE019C01119221503040E1F700
:100420001092E2031092E103DF91CF9108950F93B0
:100430001F930BE614E0C80140E855E260E070E06D
:100440000E94CA02C80140E157E260E070E00E94E9
:10045000D9048091CE0161E00E941D068091D001F7
:1004600060E00E941D068091D20160E00E941D069E
:100470008091D20161E00E9489061F910F91089539
:1004800008951F920F920FB60F9211242F933F934E
:100490004F938F939F93EF93FF938091C00082FDC2
:1004A0001DC04091C60020912304309124042F5F89
:1004B0003F4F2F73307080912504909126042817A8
:1004C000390771F0E0912304F0912404ED51FC4FC1
:1004D0004083309324042093230402C08091C600FB
:1004E000FF91EF919F918F914F913F912F910F909D
:1004F0000FBE0F901F901895E0917704F09178044B
:10050000E05CFF4F8191919120813181821B930B9F
:100510008F739070892B11F00E94400208951F92F2
:100520000F920FB60F9211242F933F938F939F93A7
:10053000EF93FF93209167043091680480916904E0
:1005400090916A042817390731F48091C1008F7D9A
:100550008093C10014C0E0916904F0916A04E95DE0
:10056000FB4F20818091690490916A0401968F73FA
:10057000907090936A04809369042093C600FF9161
:10058000EF919F918F913F912F910F900FBE0F9000
:100590001F901895AF92BF92DF92EF92FF920F9348
:1005A0001F93CF93DF93EC017A018B01DD24403060
:1005B00081EE580780E0680780E0780711F0DD24BD
:1005C000D39491E0A92EB12CEC89FD89DD2069F04E
:1005D000C50108A002C0880F991F0A94E2F7808322
:1005E00060E079E08DE390E005C0108260E874E897
:1005F0008EE190E0A80197010E94EC062150304066
:1006000040405040569547953795279580E12030DA
:10061000380720F0DD2011F0DD24D6CFE889F989F4
:100620003083EA89FB89208319A2EE89FF89408102
:1006300021E030E0C9010C8C02C0880F991F0A9498
:10064000E2F7482B4083EE89FF894081C9010D8C78
:1006500002C0880F991F0A94E2F7482B4083EE8965
:10066000FF894081C9010E8C02C0880F991F0A942E
:10067000E2F7482B4083EE89FF8980810F8C02C00E
:10068000220F331F0A94E2F7209528232083DF915D
:10069000CF911F910F91FF90EF90DF90BF90AF909F
:1006A0000895DC011C96ED91FC911D97E05CFF4FD5
:1006B0002191319180819181281B390B2F733070EA
:1006C000C9010895DC011C96ED91FC911D97E05C39
:1006D000FF4F20813181E054F040DF01AE5BBF4F1E
:1006E0008D919C9111972817390719F42FEF3FEF3F
:1006F00007C08D919C91E80FF91F8081282F30E071
:10070000C9010895DC011C96ED91FC911D97E05CF8
:10071000FF4F20813181E054F040DF01AE5BBF4FDD
:100720008D919C9111972817390719F42FEF3FEFFE
:1007300010C08D919C911197E80FF91F20818D9128
:100740009C91119701968F73907011969C938E9344
:1007500030E0C9010895DC0191968C91919788232E
:1007600039F05496ED91FC915597808186FFF9CF31
:1007700091961C920895CF93DF93EC01EE85FF854F
:10078000E05CFF4F20813181E054F0402F5F3F4F0C
:100790002F733070DF01AE5BBF4F8D919C9111972D
:1007A00028173907D1F3E05CFF4F80819181E05435
:1007B000F040E80FF91F6083EE85FF85E05CFF4F96
:1007C00031832083EE89FF89208181E090E00F8CC6
:1007D00002C0880F991F0A94E2F7282B208381E03A
:1007E00089A3EC89FD8980818064808381E090E029
:1007F000DF91CF91089510926E0410926D0488EEEF
:1008000093E0A0E0B0E080936F0490937004A09315
:100810007104B09372048BED91E090936C0480931B
:100820006B0483EE93E0909378048093770487E2DF
:1008300094E090937A048093790485EC90E090930F
:100840007C0480937B0484EC90E090937E048093FE
:100850007D0480EC90E09093800480937F0481EC91
:1008600090E0909382048093810482EC90E09093D6
:1008700084048093830486EC90E0909386048093B4
:10088000850484E08093870483E08093880487E074
:100890008093890485E080938A0481E080938B04AF
:1008A0000895CF93DF930E94E2050E941702CCE7E0
:1008B000D2E00E94EF012097E1F30E947C02F9CF81
:1008C000CF92DF92EF92FF920F931F93CF93DF931C
:1008D0007C016B018A01C0E0D0E00FC0D6016D91B0
:1008E0006D01D701ED91FC910190F081E02DC701E0
:1008F0000995C80FD91F015010400115110571F756
:10090000CE01DF91CF911F910F91FF90EF90DF907B
:10091000CF900895EF92FF920F931F938C01DC010B
:10092000ED91FC910190F081E02D6DE009957C0145
:10093000D801ED91FC910190F081E02DC8016AE0B1
:1009400009959C012E0D3F1DC9011F910F91FF902C
:10095000EF900895CF93DF93EC016115710519F4C1
:1009600020E030E00FC0DB010D900020E9F7119787
:10097000A61BB70BE881F9810280F381E02DAD0160
:1009800009959C01C901DF91CF910895EF92FF92E3
:100990000F931F937C010E94AA048C01C7010E943F
:1009A0008A04080F191FC8011F910F91FF90EF9043
:1009B0000895FC0144835583668377830895CF931C
:1009C000DF93EC010E948805688779878A879B8777
:1009D000E881F9810680F781E02DCE0109959C011F
:1009E00097FF15C00E948805288539854A855B8553
:1009F000621B730B840B950B2C813D814E815F81B3
:100A0000621773078407950718F32FEF3FEFC901AB
:100A1000DF91CF910895AF92BF92CF92DF92EF9284
:100A2000FF920F931F93CF93DF935C017A018901AB
:100A30002115310519F4C0E0D0E016C0C0E0D0E0C7
:100A4000C62EDD24C7FCD0940CC0C5010E94DF0473
:100A500097FD0AC08C159D0539F0F70181937F0140
:100A60002196C017D10788F3CE01DF91CF911F9156
:100A70000F91FF90EF90DF90CF90BF90AF900895CF
:100A80001F920F920FB60F9211242F933F938F93C3
:100A90009F93AF93BF938091910490919204A09102
:100AA0009304B0919404309195040196A11DB11D59
:100AB000232F2D5F2D3720F02D570196A11DB11D3D
:100AC000209395048093910490939204A0939304AF
:100AD000B093940480918D0490918E04A0918F0422
:100AE000B09190040196A11DB11D80938D04909347
:100AF0008E04A0938F04B0939004BF91AF919F9107
:100B00008F913F912F910F900FBE0F901F901895CE
:100B10008FB7F894209191043091920440919304FE
:100B2000509194048FBFB901CA0108959FB7F894FA
:100B300020918D0430918E0440918F045091900447
:100B400086B5A89B06C08F3F21F02F5F3F4F4F4FC8
:100B50005F4F9FBF542F432F322F2227280F311D65
:100B6000411D511D82E0220F331F441F551F8A95DE
:100B7000D1F7B901CA010895EF92FF920F931F9325
:100B8000CF93DF937B018C010E949605EB010EC091
:100B90000E9496056C1B7D0B685E7340C8F3089439
:100BA000E108F10801091109C851DC4FE114F10411
:100BB0000105110569F7DF91CF911F910F91FF900A
:100BC000EF900895789484B5826084BD84B5816087
:100BD00084BD85B5826085BD85B5816085BDEEE645
:100BE000F0E0808181608083E1E8F0E01082808124
:100BF00082608083808181608083E0E8F0E0808192
:100C000081608083E1EBF0E0808184608083E0EBB1
:100C1000F0E0808181608083EAE7F0E08081846099
:100C200080838081826080838081816080838081F5
:100C3000806880831092C1000895CF93DF93482F7E
:100C400050E0CA0186569F4FFC0134914A575F4FCE
:100C5000FA018491882369F190E0880F991FFC01C3
:100C6000E859FF4FA591B491FC01EE58FF4FC59193
:100C7000D491662351F42FB7F8948C91932F9095CB
:100C800089238C93888189230BC0623061F42FB74C
:100C9000F8948C91932F909589238C938881832B42
:100CA00088832FBF06C09FB7F8948C91832B8C93B9
:100CB0009FBFDF91CF910895833071F0843028F485
:100CC0008130A1F0823021F514C08630B1F0873038
:100CD000D1F08430E9F404C0809180008F7703C0A4
:100CE000809180008F7D80938000089584B58F77F8
:100CF00002C084B58F7D84BD08958091B0008F7748
:100D00008093B00008958091B0008F7D8093B000F3
:100D10000895FF920F931F93F62E482F50E0CA01BB
:100D200082559F4FFC012491CA0186569F4FFC01BA
:100D300014914A575F4FFA0104910023C9F022230E
:100D400019F0822F0E945C06E02FF0E0EE0FFF1FEB
:100D5000EE58FF4FA591B4919FB7F894FF2021F46E
:100D60008C911095812302C08C91812B8C939FBF15
:100D70001F910F91FF9008950F931F93482F50E0FC
:100D8000CA0182559F4FFC012491CA0186569F4F8C
:100D9000FC0104914A575F4FFA011491112319F491
:100DA00020E030E015C0222319F0822F0E945C065B
:100DB000812F90E0880F991F84589F4FFC01A591C7
:100DC000B4918C9120E030E0802311F021E030E0FC
:100DD000C9011F910F910895A1E21A2EAA1BBB1BF6
:100DE000FD010DC0AA1FBB1FEE1FFF1FA217B307F7
:100DF000E407F50720F0A21BB30BE40BF50B661F0D
:100E0000771F881F991F1A9469F7609570958095D0
:100E100090959B01AC01BD01CF010895EE0FFF1F1E
:0C0E20000590F491E02D0994F894FFCFA8
:100E2C00200061645F6D6F6546756E630061645F81
:100E3C006C65644F6E0061645F6C65644F66660040
:100E4C0061645F5049526F6E0061645F53776974DF
:100E5C0063684F6E0061645F5049526F6666006153
:100E6C00645F5377697463684F666600446F6F7292
:100E7C0020646561637469766174656400504952DD
:100E8C0020646561637469766174656400504952CD
:100E9C0020616374697665004D6F74696F6E2064B0
:100EAC0065746563746564004D6F74696F6E20655D
:100EBC006E646564210061645F6C65644F666600F6
:100ECC0061645F6C65644F6E00446F6F7220616388
:100EDC007469766500446F6F7220636C6F73656420
:100EEC0000446F6F72206F70656E656420000D009A
:100EFC000200030001000100000000BB036004516C
:080F0C000382036203AB030042
:00000001FF
