:100000000C9462000C948A000C948A000C948A0070
:100010000C948A000C948A000C948A000C948A0038
:100020000C948A000C948A000C948A000C948A0028
:100030000C948A000C948A000C948A000C948A0018
:100040000C9484040C948A000C9485010C94D301C4
:100050000C948A000C948A000C948A000C948A00F8
:100060000C948A000C948A000000000024002700F1
:100070002A0000000000250028002B0000000000DE
:1000800023002600290004040404040404040202DA
:100090000202020203030303030301020408102007
:1000A0004080010204081020010204081020000012
:1000B0000007000201000003040600000000000029
:1000C00000003F0311241FBECFEFD8E0DEBFCDBF3D
:1000D00011E0A0E0B1E0ECEBFBE002C005900D9276
:1000E000A834B107D9F713E0A8E4B1E001C01D922C
:1000F000A33FB107E1F710E0C4ECD0E004C02297C1
:10010000FE010E94D805C23CD107C9F70E949503A1
:100110000C94DC050C940000FC0188279927E894D6
:1001200021912032E9F3293010F02E30C8F32B3220
:1001300041F02D3239F4689404C00E94EA00820F25
:10014000911D219120532A30C0F31EF49095819582
:100150009F4F089548E451E00E94B8000895FB01C4
:10016000DC018D91019080190110D9F3990B08954C
:10017000009731F4DA018D919C91009709F40EC03B
:10018000DC01FB013D912191222319F03217C9F3C3
:10019000FACF332331F4DA011D921C928827992774
:1001A00008951197AF93BF93FB013D9121913217B1
:1001B00071F4332321F488279927119702C01E92E6
:1001C0001196FA01A193B0839F918F9108952223F4
:1001D00069F7EACF7AE0979F902D879F802D910D48
:1001E00011240895CF93DF9360E071E00E94AA008C
:1001F000EC0162E071E00E94AF00009751F480E0F2
:1002000090E060E071E00E94AA000E948C000E94D1
:100210002701CE016DE071E00E94AF00009711F45C
:100220000E943801CE0166E171E00E94AF000097A4
:1002300011F40E942D01CE0160E271E00E94AF0036
:10024000009711F40E942801DF91CF91089508953D
:100250008DE061E00E948105089588EC93E065E2FD
:1002600071E00E940A048DE060E00E94810508951B
:1002700088EC93E06FE271E00E940A048DE061E097
:100280000E9481050895CF93DF93CAE4D1E088EC02
:1002900093E06AE0AE0123EF31E00E944F049093B7
:1002A0003F0380933E03CE010E94F20080913E0303
:1002B00090913F03892B61F084EF91E0FE019C0156
:1002C000119221503040E1F710923F0310923E030B
:1002D000DF91CF9108950F931F9308EC13E0C801AD
:1002E00040E855E260E070E00E940E02C80140E183
:1002F00057E260E070E00E941D048DE061E00E9422
:1003000015051F910F91089508951F920F920FB632
:100310000F9211242F933F934F938F939F93EF93BB
:10032000FF938091C00082FD1DC04091C6002091C6
:100330008003309181032F5F3F4F2F733070809186
:100340008203909183032817390771F0E0918003AD
:10035000F0918103E05CFC4F408330938103209354
:10036000800302C08091C600FF91EF919F918F9111
:100370004F913F912F910F900FBE0F901F901895A6
:10038000E091D403F091D503E05CFF4F819191910E
:1003900020813181821B930B8F739070892B11F018
:1003A0000E94840108951F920F920FB60F9211249C
:1003B0002F933F938F939F93EF93FF932091C403C9
:1003C0003091C5038091C6039091C7032817390760
:1003D00031F48091C1008F7D8093C10014C0E09101
:1003E000C603F091C703EC57FC4F20818091C603F0
:1003F0009091C70301968F7390709093C703809379
:10040000C6032093C600FF91EF919F918F913F917A
:100410002F910F900FBE0F901F901895AF92BF9223
:10042000DF92EF92FF920F931F93CF93DF93EC0134
:100430007A018B01DD24403081EE580780E06807A7
:1004400080E0780711F0DD24D39491E0A92EB12C3F
:10045000EC89FD89DD2069F0C50108A002C0880F84
:10046000991F0A94E2F7808360E079E08DE390E0E1
:1004700005C0108260E874E88EE190E0A801970161
:100480000E94B40521503040404050405695479559
:100490003795279580E12030380720F0DD2011F0D6
:1004A000DD24D6CFE889F9893083EA89FB89208366
:1004B00019A2EE89FF89408121E030E0C9010C8C4E
:1004C00002C0880F991F0A94E2F7482B4083EE89F7
:1004D000FF894081C9010D8C02C0880F991F0A94C1
:1004E000E2F7482B4083EE89FF894081C9010E8CD9
:1004F00002C0880F991F0A94E2F7482B4083EE89C7
:10050000FF8980810F8C02C0220F331F0A94E2F70B
:10051000209528232083DF91CF911F910F91FF9089
:10052000EF90DF90BF90AF900895DC011C96ED91A5
:10053000FC911D97E05CFF4F219131918081918169
:10054000281B390B2F733070C9010895DC011C96EC
:10055000ED91FC911D97E05CFF4F20813181E054CB
:10056000F040DF01AE5BBF4F8D919C911197281732
:10057000390719F42FEF3FEF07C08D919C91E80FD9
:10058000F91F8081282F30E0C9010895DC011C96F5
:10059000ED91FC911D97E05CFF4F20813181E0548B
:1005A000F040DF01AE5BBF4F8D919C9111972817F2
:1005B000390719F42FEF3FEF10C08D919C911197DF
:1005C000E80FF91F20818D919C91119701968F73EF
:1005D000907011969C938E9330E0C9010895DC01D0
:1005E00091968C919197882339F05496ED91FC91D6
:1005F0005597808186FFF9CF91961C920895CF93ED
:10060000DF93EC01EE85FF85E05CFF4F20813181B7
:10061000E054F0402F5F3F4F2F733070DF01AE5B2F
:10062000BF4F8D919C91119728173907D1F3E05C4A
:10063000FF4F80819181E054F040E80FF91F608303
:10064000EE85FF85E05CFF4F31832083EE89FF89D3
:10065000208181E090E00F8C02C0880F991F0A94DE
:10066000E2F7282B208381E089A3EC89FD89808132
:100670008064808381E090E0DF91CF9108951092B3
:10068000CB031092CA0388EE93E0A0E0B0E0809321
:10069000CC039093CD03A093CE03B093CF038CE310
:1006A00091E09093C9038093C80380E493E0909312
:1006B000D5038093D40384E893E09093D703809389
:1006C000D60385EC90E09093D9038093D80384EC13
:1006D00090E09093DB038093DA0380EC90E09093BA
:1006E000DD038093DC0381EC90E09093DF03809343
:1006F000DE0382EC90E09093E1038093E00386ECCC
:1007000090E09093E3038093E20384E08093E4031A
:1007100083E08093E50387E08093E60385E08093A0
:10072000E70381E08093E8030895CF93DF930E946D
:10073000DA040E946B01C0ECD1E00E9443012097D3
:10074000E1F30E94C001F9CFCF92DF92EF92FF92C6
:100750000F931F93CF93DF937C016B018A01C0E05D
:10076000D0E00FC0D6016D916D01D701ED91FC91E4
:100770000190F081E02DC7010995C80FD91F0150E4
:1007800010400115110571F7CE01DF91CF911F9136
:100790000F91FF90EF90DF90CF900895EF92FF922E
:1007A0000F931F938C01DC01ED91FC910190F0817E
:1007B000E02D6DE009957C01D801ED91FC9101904F
:1007C000F081E02DC8016AE009959C012E0D3F1DC6
:1007D000C9011F910F91FF90EF900895CF93DF9380
:1007E000EC016115710519F420E030E00FC0DB0168
:1007F0000D900020E9F71197A61BB70BE881F9814E
:100800000280F381E02DAD0109959C01C901DF91C2
:10081000CF910895EF92FF920F931F937C010E9456
:10082000EE038C01C7010E94CE03080F191FC801F7
:100830001F910F91FF90EF900895FC014483558321
:10084000668377830895CF93DF93EC010E94CC04F5
:10085000688779878A879B87E881F9810680F78195
:10086000E02DCE0109959C0197FF15C00E94CC0494
:10087000288539854A855B85621B730B840B950B34
:100880002C813D814E815F81621773078407950734
:1008900018F32FEF3FEFC901DF91CF910895AF9289
:1008A000BF92CF92DF92EF92FF920F931F93CF935D
:1008B000DF935C017A0189012115310519F4C0E04B
:1008C000D0E016C0C0E0D0E0C62EDD24C7FCD09436
:1008D0000CC0C5010E94230497FD0AC08C159D051C
:1008E00039F0F70181937F012196C017D10788F372
:1008F000CE01DF91CF911F910F91FF90EF90DF908C
:10090000CF90BF90AF9008951F920F920FB60F92A5
:1009100011242F933F938F939F93AF93BF93809115
:10092000EE039091EF03A091F003B091F1033091A9
:10093000F2030196A11DB11D232F2D5F2D3720F04D
:100940002D570196A11DB11D2093F2038093EE0354
:100950009093EF03A093F003B093F1038091EA0327
:100960009091EB03A091EC03B091ED030196A11DD2
:10097000B11D8093EA039093EB03A093EC03B09333
:10098000ED03BF91AF919F918F913F912F910F9068
:100990000FBE0F901F9018958FB7F8942091EE031B
:1009A0003091EF034091F0035091F1038FBFB901F3
:1009B000CA010895789484B5826084BD84B581604D
:1009C00084BD85B5826085BD85B5816085BDEEE657
:1009D000F0E0808181608083E1E8F0E01082808136
:1009E00082608083808181608083E0E8F0E08081A4
:1009F00081608083E1EBF0E0808184608083E0EBC4
:100A0000F0E0808181608083EAE7F0E080818460AB
:100A10008083808182608083808181608083808107
:100A2000806880831092C1000895CF93DF93482F90
:100A300050E0CA0186569F4FFC0134914A575F4FE0
:100A4000FA018491882369F190E0880F991FFC01D5
:100A5000E859FF4FA591B491FC01EE58FF4FC591A5
:100A6000D491662351F42FB7F8948C91932F9095DD
:100A700089238C93888189230BC0623061F42FB75E
:100A8000F8948C91932F909589238C938881832B54
:100A900088832FBF06C09FB7F8948C91832B8C93CB
:100AA0009FBFDF91CF910895833071F0843028F497
:100AB0008130A1F0823021F514C08630B1F087304A
:100AC000D1F08430E9F404C0809180008F7703C0B6
:100AD000809180008F7D80938000089584B58F770A
:100AE00002C084B58F7D84BD08958091B0008F775A
:100AF0008093B00008958091B0008F7D8093B00006
:100B00000895FF920F931F93F62E482F50E0CA01CD
:100B100082559F4FFC012491CA0186569F4FFC01CC
:100B200014914A575F4FFA0104910023C9F0222320
:100B300019F0822F0E945405E02FF0E0EE0FFF1F06
:100B4000EE58FF4FA591B4919FB7F894FF2021F480
:100B50008C911095812302C08C91812B8C939FBF27
:100B60001F910F91FF900895A1E21A2EAA1BBB1BA3
:100B7000FD010DC0AA1FBB1FEE1FFF1FA217B30769
:100B8000E407F50720F0A21BB30BE40BF50B661F7F
:100B9000771F881F991F1A9469F760957095809543
:100BA00090959B01AC01BD01CF010895EE0FFF1F91
:0C0BB0000590F491E02D0994F894FFCF1B
:100BBC00200061645F6D6F6546756E630061645FF4
:100BCC006C65644F6E0061645F6C65644F666600B3
:100BDC006D6C6F630061645F6C65644F6666006189
:100BEC00645F6C65644F6E0000000000FF02A4039C
:080BFC009502C602A602EF02F9
:00000001FF
