:100000000C9462000C948A000C948A000C948A0070
:100010000C948A000C948A000C948A000C948A0038
:100020000C948A000C948A000C948A000C948A0028
:100030000C948A000C948A000C948A000C948A0018
:100040000C9424050C948A000C9425020C947302E1
:100050000C948A000C948A000C948A000C948A00F8
:100060000C948A000C948A000000000024002700F1
:100070002A0000000000250028002B0000000000DE
:1000800023002600290004040404040404040202DA
:100090000202020203030303030301020408102007
:1000A0004080010204081020010204081020000012
:1000B0000007000201000003040600000000000029
:1000C0000000DF0311241FBECFEFD8E0DEBFCDBF9D
:1000D00011E0A0E0B1E0ECE5FDE002C005900D927A
:1000E000A03EB107D9F714E0A0EEB1E001C01D9227
:1000F000AD38B107E1F710E0C4ECD0E004C02297BE
:10010000FE010E94A806C23CD107C9F70E9435042F
:100110000C94AC060C940000FC0188279927E89405
:1001200021912032E9F3293010F02E30C8F32B3220
:1001300041F02D3239F4689404C00E94EA00820F25
:10014000911D219120532A30C0F31EF49095819582
:100150009F4F089540EE51E00E94B8000895FB01C2
:10016000DC018D91019080190110D9F3990B08954C
:10017000009731F4DA018D919C91009709F40EC03B
:10018000DC01FB013D912191222319F03217C9F3C3
:10019000FACF332331F4DA011D921C928827992774
:1001A00008951197AF93BF93FB013D9121913217B1
:1001B00071F4332321F488279927119702C01E92E6
:1001C0001196FA01A193B0839F918F9108952223F4
:1001D00069F7EACF7AE0979F902D879F802D910D48
:1001E00011240895CF93DF9360E071E00E94AA008C
:1001F000EC0182E694E0BE010E94AA04CE0162E016
:1002000071E00E94AF00009751F480E090E060E060
:1002100071E00E94AA000E948C000E944801CE0159
:100220006DE071E00E94AF00009711F40E94C701D9
:10023000CE0166E171E00E94AF00009711F40E94C8
:10024000BB01CE0160E271E00E94AF00009711F4A3
:100250000E947D01CE0169E271E00E94AF0000972B
:1002600011F40E945701CE0165E371E00E94AF00D6
:10027000009711F40E945001CE016FE371E00E94DB
:10028000AF00009711F40E944901DF91CF910895CA
:10029000089582E694E06CE471E00E94AA04089557
:1002A00082E694E06DE571E00E94AA04089582E67A
:1002B00094E06DE671E00E94AA048091CB010E9457
:1002C00054069093CE018093CD01019751F4809113
:1002D000C70160E00E94210682E694E069E771E0D0
:1002E00009C08091C70161E00E94210682E694E086
:1002F00065E871E00E94AA040895CF93DF9382E637
:1003000094E061E971E00E94AA048091C9010E9411
:100310005406EC0181309105B1F48091C70161E090
:100320000E9421068091E2019091E301892B01F561
:10033000D093E301C093E20182E694E066E971E0C4
:100340000E94AA0415C08091C70160E00E942106A6
:100350008091E2019091E301019751F482E694E0EB
:1003600066EA71E00E94AA041092E3011092E20191
:10037000DF91CF91089582E694E064EB71E00E94F2
:10038000AA048091C70160E00E942106089582E6D8
:1003900094E06EEB71E00E94AA048091C70161E0D5
:1003A0000E9421060895CF93DF93C4EED1E082E648
:1003B00094E06AE0AE0123EF31E00E94EF049093F5
:1003C000D9038093D803CE010E94F2008091D80314
:1003D0009091D903892B61F084EF91E0FE019C019B
:1003E000119221503040E1F71092D9031092D803B6
:1003F000DF91CF9108950F931F9302E614E0C80197
:1004000040E855E260E070E00E94AE02C80140E1C1
:1004100057E260E070E00E94BD048091C70161E096
:100420000E94B5058091C90160E00E94B5058091E8
:10043000CB0160E00E94B5058091CB0161E00E9494
:1004400021061F910F91089508951F920F920FB6E4
:100450000F9211242F933F934F938F939F93EF937A
:10046000FF938091C00082FD1DC04091C600209185
:100470001A0430911B042F5F3F4F2F73307080910F
:100480001C0490911D042817390771F0E0911A049B
:10049000F0911B04E652FC4F408330931B042093E1
:1004A0001A0402C08091C600FF91EF919F918F9135
:1004B0004F913F912F910F900FBE0F901F90189565
:1004C000E0916E04F0916F04E05CFF4F8191919197
:1004D00020813181821B930B8F739070892B11F0D7
:1004E0000E94240208951F920F920FB60F921124BA
:1004F0002F933F938F939F93EF93FF9320915E04ED
:1005000030915F048091600490916104281739074D
:1005100031F48091C1008F7D8093C10014C0E091BF
:100520006004F0916104E25EFB4F208180916004E1
:100530009091610401968F73907090936104809301
:1005400060042093C600FF91EF919F918F913F919E
:100550002F910F900FBE0F901F901895AF92BF92E2
:10056000DF92EF92FF920F931F93CF93DF93EC01F3
:100570007A018B01DD24403081EE580780E0680766
:1005800080E0780711F0DD24D39491E0A92EB12CFE
:10059000EC89FD89DD2069F0C50108A002C0880F43
:1005A000991F0A94E2F7808360E079E08DE390E0A0
:1005B00005C0108260E874E88EE190E0A801970120
:1005C0000E94840621503040404050405695479547
:1005D0003795279580E12030380720F0DD2011F095
:1005E000DD24D6CFE889F9893083EA89FB89208325
:1005F00019A2EE89FF89408121E030E0C9010C8C0D
:1006000002C0880F991F0A94E2F7482B4083EE89B5
:10061000FF894081C9010D8C02C0880F991F0A947F
:10062000E2F7482B4083EE89FF894081C9010E8C97
:1006300002C0880F991F0A94E2F7482B4083EE8985
:10064000FF8980810F8C02C0220F331F0A94E2F7CA
:10065000209528232083DF91CF911F910F91FF9048
:10066000EF90DF90BF90AF900895DC011C96ED9164
:10067000FC911D97E05CFF4F219131918081918128
:10068000281B390B2F733070C9010895DC011C96AB
:10069000ED91FC911D97E05CFF4F20813181E0548A
:1006A000F040DF01AE5BBF4F8D919C9111972817F1
:1006B000390719F42FEF3FEF07C08D919C91E80F98
:1006C000F91F8081282F30E0C9010895DC011C96B4
:1006D000ED91FC911D97E05CFF4F20813181E0544A
:1006E000F040DF01AE5BBF4F8D919C9111972817B1
:1006F000390719F42FEF3FEF10C08D919C9111979E
:10070000E80FF91F20818D919C91119701968F73AD
:10071000907011969C938E9330E0C9010895DC018E
:1007200091968C919197882339F05496ED91FC9194
:100730005597808186FFF9CF91961C920895CF93AB
:10074000DF93EC01EE85FF85E05CFF4F2081318176
:10075000E054F0402F5F3F4F2F733070DF01AE5BEE
:10076000BF4F8D919C91119728173907D1F3E05C09
:10077000FF4F80819181E054F040E80FF91F6083C2
:10078000EE85FF85E05CFF4F31832083EE89FF8992
:10079000208181E090E00F8C02C0880F991F0A949D
:1007A000E2F7282B208381E089A3EC89FD898081F1
:1007B0008064808381E090E0DF91CF910895109272
:1007C00065041092640488EE93E0A0E0B0E08093AA
:1007D000660490936704A0936804B093690483ED62
:1007E00091E090936304809362048AED93E0909388
:1007F0006F0480936E048EE194E090937104809373
:10080000700485EC90E0909373048093720484EC00
:1008100090E0909375048093740480EC90E0909342
:1008200077048093760481EC90E090937904809330
:10083000780482EC90E090937B0480937A0486ECB9
:1008400090E090937D0480937C0484E080937E0408
:1008500083E080937F0487E08093800485E0809329
:10086000810481E0809382040895CF93DF930E94F6
:100870007A050E94FB01C0E6D2E00E94D3012097D6
:10088000E1F30E946002F9CFCF92DF92EF92FF92E4
:100890000F931F93CF93DF937C016B018A01C0E01C
:1008A000D0E00FC0D6016D916D01D701ED91FC91A3
:1008B0000190F081E02DC7010995C80FD91F0150A3
:1008C00010400115110571F7CE01DF91CF911F91F5
:1008D0000F91FF90EF90DF90CF900895EF92FF92ED
:1008E0000F931F938C01DC01ED91FC910190F0813D
:1008F000E02D6DE009957C01D801ED91FC9101900E
:10090000F081E02DC8016AE009959C012E0D3F1D84
:10091000C9011F910F91FF90EF900895CF93DF933E
:10092000EC016115710519F420E030E00FC0DB0126
:100930000D900020E9F71197A61BB70BE881F9810C
:100940000280F381E02DAD0109959C01C901DF9181
:10095000CF910895EF92FF920F931F937C010E9415
:100960008E048C01C7010E946E04080F191FC80174
:100970001F910F91FF90EF900895FC0144835583E0
:10098000668377830895CF93DF93EC010E946C0513
:10099000688779878A879B87E881F9810680F78154
:1009A000E02DCE0109959C0197FF15C00E946C05B2
:1009B000288539854A855B85621B730B840B950BF3
:1009C0002C813D814E815F816217730784079507F3
:1009D00018F32FEF3FEFC901DF91CF910895AF9248
:1009E000BF92CF92DF92EF92FF920F931F93CF931C
:1009F000DF935C017A0189012115310519F4C0E00A
:100A0000D0E016C0C0E0D0E0C62EDD24C7FCD094F4
:100A10000CC0C5010E94C30497FD0AC08C159D053A
:100A200039F0F70181937F012196C017D10788F330
:100A3000CE01DF91CF911F910F91FF90EF90DF904A
:100A4000CF90BF90AF9008951F920F920FB60F9264
:100A500011242F933F938F939F93AF93BF938091D4
:100A6000880490918904A0918A04B0918B043091FC
:100A70008C040196A11DB11D232F2D5F2D3720F071
:100A80002D570196A11DB11D20938C0480938804DD
:100A900090938904A0938A04B0938B04809184047A
:100AA00090918504A0918604B09187040196A11DC0
:100AB000B11D8093840490938504A0938604B09321
:100AC0008704BF91AF919F918F913F912F910F908C
:100AD0000FBE0F901F9018958FB7F894209188043F
:100AE0003091890440918A0450918B048FBFB901E1
:100AF000CA010895789484B5826084BD84B581600C
:100B000084BD85B5826085BD85B5816085BDEEE615
:100B1000F0E0808181608083E1E8F0E010828081F4
:100B200082608083808181608083E0E8F0E0808162
:100B300081608083E1EBF0E0808184608083E0EB82
:100B4000F0E0808181608083EAE7F0E0808184606A
:100B500080838081826080838081816080838081C6
:100B6000806880831092C1000895CF93DF93482F4F
:100B700050E0CA0186569F4FFC0134914A575F4F9F
:100B8000FA018491882369F190E0880F991FFC0194
:100B9000E859FF4FA591B491FC01EE58FF4FC59164
:100BA000D491662351F42FB7F8948C91932F90959C
:100BB00089238C93888189230BC0623061F42FB71D
:100BC000F8948C91932F909589238C938881832B13
:100BD00088832FBF06C09FB7F8948C91832B8C938A
:100BE0009FBFDF91CF910895833071F0843028F456
:100BF0008130A1F0823021F514C08630B1F0873009
:100C0000D1F08430E9F404C0809180008F7703C074
:100C1000809180008F7D80938000089584B58F77C8
:100C200002C084B58F7D84BD08958091B0008F7718
:100C30008093B00008958091B0008F7D8093B000C4
:100C40000895FF920F931F93F62E482F50E0CA018C
:100C500082559F4FFC012491CA0186569F4FFC018B
:100C600014914A575F4FFA0104910023C9F02223DF
:100C700019F0822F0E94F405E02FF0E0EE0FFF1F25
:100C8000EE58FF4FA591B4919FB7F894FF2021F43F
:100C90008C911095812302C08C91812B8C939FBFE6
:100CA0001F910F91FF9008950F931F93482F50E0CD
:100CB000CA0182559F4FFC012491CA0186569F4F5D
:100CC000FC0104914A575F4FFA011491112319F462
:100CD00020E030E015C0222319F0822F0E94F40595
:100CE000812F90E0880F991F84589F4FFC01A59198
:100CF000B4918C9120E030E0802311F021E030E0CD
:100D0000C9011F910F910895A1E21A2EAA1BBB1BC6
:100D1000FD010DC0AA1FBB1FEE1FFF1FA217B307C7
:100D2000E407F50720F0A21BB30BE40BF50B661FDD
:100D3000771F881F991F1A9469F7609570958095A1
:100D400090959B01AC01BD01CF010895EE0FFF1FEF
:0C0D50000590F491E02D0994F894FFCF79
:100D5C00200061645F6D6F6546756E630061645F52
:100D6C006C65644F6E0061645F6C65644F66660011
:100D7C0061645F5049526F6E0061645F53776974B0
:100D8C0063684F6E0061645F5049526F6666006124
:100D9C00645F5377697463684F666600446F6F7263
:100DAC0020646561637469766174656400504952AE
:100DBC0020646561637469766174656400446F6F67
:100DCC00722061637469766500446F6F7220636C86
:100DDC006F73656400446F6F72206F70656E65642D
:100DEC000031323334004D6F74696F6E206465745A
:100DFC006563746564004D6F74696F6E20656E6415
:100E0C006564210061645F6C65644F6666006164B3
:100E1C005F6C65644F6E000D000200030001000062
:100E2C000000009F0344043503660346038F030050
:00000001FF
