:100000000C9462000C948A000C948A000C948A0070
:100010000C948A000C948A000C948A000C948A0038
:100020000C948A000C948A000C948A000C948A0028
:100030000C948A000C948A000C948A000C948A0018
:100040000C947F050C948A000C949C020C94EA0298
:100050000C948A000C948A000C948A000C948A00F8
:100060000C948A000C948A000000000024002700F1
:100070002A0000000000250028002B0000000000DE
:1000800023002600290004040404040404040202DA
:100090000202020203030303030301020408102007
:1000A0004080010204081020010204081020000012
:1000B0000007000201000003040600000000000029
:1000C0000000560411241FBECFEFD8E0DEBFCDBF25
:1000D00011E0A0E0B1E0EAEAFEE002C005900D9276
:1000E000AC3FB107D9F714E0ACEFB1E001C01D920D
:1000F000AC3AB107E1F710E0C4ECD0E004C02297BD
:10010000FE010E944F07C23CD107C9F70E94AC0410
:100110000C9453070C940000FC0188279927E8945D
:1001200021912032E9F3293010F02E30C8F32B3220
:1001300041F02D3239F4689404C00E94EA00820F25
:10014000911D219120532A30C0F31EF49095819582
:100150009F4F08954CEF51E00E94B8000895FB01B5
:10016000DC018D91019080190110D9F3990B08954C
:10017000009731F4DA018D919C91009709F40EC03B
:10018000DC01FB013D912191222319F03217C9F3C3
:10019000FACF332331F4DA011D921C928827992774
:1001A00008951197AF93BF93FB013D9121913217B1
:1001B00071F4332321F488279927119702C01E92E6
:1001C0001196FA01A193B0839F918F9108952223F4
:1001D00069F7EACF7AE0979F902D879F802D910D48
:1001E00011240895CF93DF9360E071E00E94AA008C
:1001F000EC0181E894E0BE010E940505CE0162E0B9
:1002000071E00E94AF00009751F480E090E060E060
:1002100071E00E94AA000E948C000E945101CE0150
:100220006DE071E00E94AF00009711F40E946C0134
:10023000CE0166E171E00E94AF00009711F40E94C8
:100240006001CE0160E271E00E94AF00009711F4FE
:100250000E94E601CE0169E271E00E94AF000097C2
:1002600011F40E949401CE0165E371E00E94AF0099
:10027000009711F40E945901CE016FE371E00E94D2
:10028000AF00009711F40E945201CE016CE471E0BE
:100290000E94AF00009711F40E942E02DF91CF91CF
:1002A0000895089581E894E064E571E00E940505F1
:1002B000089581E894E065E671E00E9405050895DF
:1002C00081E894E065E771E00E9405058091E00116
:1002D00060E00E94C806089581E894E06FE771E04D
:1002E0000E9405058091E00161E00E94C806089522
:1002F000CF93DF93EC016115710519F420E030E034
:100300000FC0DB010D900020E9F71197A61BB70B7A
:10031000E881F9810280F381E02DAD0109959C010E
:10032000C901DF91CF91089581E894E068E871E018
:100330000E9405058091E4010E94FB069093E7016D
:100340008093E601019709F58091E00160E00E9449
:10035000C8068091EA018823A1F01092EA0181E8A1
:1003600094E064E971E00E94780181E894E066E934
:1003700071E00E94050562E370E080E090E00E9479
:10038000FB0581E08093020208958091E00161E025
:100390000E94C806809102028823B9F010920202DE
:1003A00081E08093EA0181E894E062EA71E00E94D2
:1003B000780181E894E064EA71E00E94050562E357
:1003C00070E080E090E00E94FB050895CF93DF93FA
:1003D00081E894E061EB71E00E9405058091E20103
:1003E0000E94FB06EC0181309105D1F48091E0017F
:1003F00061E00E94C8068091FE019091FF01892B67
:1004000051F5D093FF01C093FE0181E894E06CEBBD
:1004100071E00E94050581E894E06CEC71E019C080
:100420008091E00160E00E94C8068091FE019091F9
:10043000FF01019781F41092FF011092FE0181E803
:1004400094E06EEC71E00E94050581E894E06CEDAB
:1004500071E00E947801DF91CF9108958091E801C9
:100460000E94FB069093010280930002019761F4C1
:100470008091E00161E00E94C80681E894E06EEDA1
:1004800071E00E94780108958091E00160E00E948F
:10049000C8060895CF93DF93C3E0D2E081E894E0EB
:1004A0006AE0AE0123EF31E00E944A059093F80321
:1004B0008093F703CE010E94F2008091F7039091A0
:1004C000F803892B61F084EF91E0FE019C01119209
:1004D00021503040E1F71092F8031092F703DF91BA
:1004E000CF9108950F931F9301E814E0C80140E8ED
:1004F00055E260E070E00E942503C80140E157E248
:1005000060E070E00E9418058091E00161E00E94C7
:100510005C068091E20160E00E945C068091E4014B
:1005200060E00E945C068091E40161E00E94C806E0
:100530001F910F91089508951F920F920FB60F9279
:1005400011242F933F934F938F939F93EF93FF9398
:100550008091C00082FD1DC04091C60020913904E9
:1005600030913A042F5F3F4F2F73307080913B04DE
:1005700090913C042817390771F0E0913904F0910B
:100580003A04E750FC4F408330933A0420933904F7
:1005900002C08091C600FF91EF919F918F914F9182
:1005A0003F912F910F900FBE0F901F901895E091E3
:1005B0008D04F0918E04E05CFF4F81919191208138
:1005C0003181821B930B8F739070892B11F00E94E5
:1005D0009B0208951F920F920FB60F9211242F9332
:1005E0003F938F939F93EF93FF9320917D043091DE
:1005F0007E0480917F04909180042817390731F49C
:100600008091C1008F7D8093C10014C0E0917F0470
:10061000F0918004E35CFB4F208180917F049091F6
:10062000800401968F7390709093800480937F0470
:100630002093C600FF91EF919F918F913F912F9151
:100640000F900FBE0F901F901895AF92BF92DF9240
:10065000EF92FF920F931F93CF93DF93EC017A01F8
:100660008B01DD24403081EE580780E0680780E090
:10067000780711F0DD24D39491E0A92EB12CEC89F8
:10068000FD89DD2069F0C50108A002C0880F991F0F
:100690000A94E2F7808360E079E08DE390E005C0A2
:1006A000108260E874E88EE190E0A80197010E9452
:1006B0002B07215030404040504056954795379584
:1006C000279580E12030380720F0DD2011F0DD246F
:1006D000D6CFE889F9893083EA89FB89208319A27A
:1006E000EE89FF89408121E030E0C9010C8C02C015
:1006F000880F991F0A94E2F7482B4083EE89FF89FF
:100700004081C9010D8C02C0880F991F0A94E2F73D
:10071000482B4083EE89FF894081C9010E8C02C0BD
:10072000880F991F0A94E2F7482B4083EE89FF89CE
:1007300080810F8C02C0220F331F0A94E2F72095AC
:1007400028232083DF91CF911F910F91FF90EF908D
:10075000DF90BF90AF900895DC011C96ED91FC9165
:100760001D97E05CFF4F2191319180819181281B81
:10077000390B2F733070C9010895DC011C96ED917F
:10078000FC911D97E05CFF4F20813181E054F040E7
:10079000DF01AE5BBF4F8D919C91119728173907F0
:1007A00019F42FEF3FEF07C08D919C91E80FF91FCF
:1007B0008081282F30E0C9010895DC011C96ED915D
:1007C000FC911D97E05CFF4F20813181E054F040A7
:1007D000DF01AE5BBF4F8D919C91119728173907B0
:1007E00019F42FEF3FEF10C08D919C911197E80FF6
:1007F000F91F20818D919C91119701968F739070B4
:1008000011969C938E9330E0C9010895DC01919676
:100810008C919197882339F05496ED91FC915597DE
:10082000808186FFF9CF91961C920895CF93DF9334
:10083000EC01EE85FF85E05CFF4F20813181E054C3
:10084000F0402F5F3F4F2F733070DF01AE5BBF4F23
:100850008D919C91119728173907D1F3E05CFF4FD8
:1008600080819181E054F040E80FF91F6083EE85AC
:10087000FF85E05CFF4F31832083EE89FF89208173
:1008800081E090E00F8C02C0880F991F0A94E2F774
:10089000282B208381E089A3EC89FD8980818064F5
:1008A000808381E090E0DF91CF91089510928404DD
:1008B0001092830488EE93E0A0E0B0E0809385047A
:1008C00090938604A0938704B09388048FEE91E000
:1008D000909382048093810489EF93E090938E0437
:1008E00080938D048DE394E09093900480938F0423
:1008F00085EC90E0909392048093910484EC90E0D6
:10090000909394048093930480EC90E090939604E9
:100910008093950481EC90E09093980480939704E1
:1009200082EC90E090939A048093990486EC90E096
:1009300090939C0480939B0484E080939D0483E0C7
:1009400080939E0487E080939F0485E08093A004B9
:1009500081E08093A1040895CF93DF930E94210644
:100960000E947202C7EDD2E00E944A022097E1F392
:100970000E94D702F9CFCF92DF92EF92FF920F93AE
:100980001F93CF93DF937C016B018A01C0E0D0E01D
:100990000FC0D6016D916D01D701ED91FC910190D1
:1009A000F081E02DC7010995C80FD91F01501040F3
:1009B0000115110571F7CE01DF91CF911F910F91B4
:1009C000FF90EF90DF90CF900895EF92FF920F93FA
:1009D0001F938C01DC01ED91FC910190F081E02DE1
:1009E0006DE009957C01D801ED91FC910190F081B9
:1009F000E02DC8016AE009959C012E0D3F1DC9013B
:100A00001F910F91FF90EF900895EF92FF920F9337
:100A10001F937C010E9478018C01C7010E94E504AC
:100A2000080F191FC8011F910F91FF90EF900895B3
:100A3000FC0144835583668377830895CF93DF93C6
:100A4000EC010E94C705688779878A879B87E881C0
:100A5000F9810680F781E02DCE0109959C0197FF71
:100A600015C00E94C705288539854A855B85621BAC
:100A7000730B840B950B2C813D814E815F81621736
:100A800073078407950718F32FEF3FEFC901DF9134
:100A9000CF910895AF92BF92CF92DF92EF92FF92E3
:100AA0000F931F93CF93DF935C017A018901211586
:100AB000310519F4C0E0D0E016C0C0E0D0E0C62E89
:100AC000DD24C7FCD0940CC0C5010E941E0597FD13
:100AD0000AC08C159D0539F0F70181937F0121969D
:100AE000C017D10788F3CE01DF91CF911F910F91ED
:100AF000FF90EF90DF90CF90BF90AF9008951F923E
:100B00000F920FB60F9211242F933F938F939F93C1
:100B1000AF93BF938091A7049091A804A091A904DA
:100B2000B091AA043091AB040196A11DB11D232FF1
:100B30002D5F2D3720F02D570196A11DB11D20935B
:100B4000AB048093A7049093A804A093A904B09346
:100B5000AA048091A3049091A404A091A504B0914B
:100B6000A6040196A11DB11D8093A3049093A40433
:100B7000A093A504B093A604BF91AF919F918F91CC
:100B80003F912F910F900FBE0F901F9018958FB728
:100B9000F8942091A7043091A8044091A9045091A1
:100BA000AA048FBFB901CA0108959FB7F894209194
:100BB000A3043091A4044091A5045091A60486B5E5
:100BC000A89B06C08F3F21F02F5F3F4F4F4F5F4FD5
:100BD0009FBF542F432F322F2227280F311D411D35
:100BE000511D82E0220F331F441F551F8A95D1F7F4
:100BF000B901CA010895EF92FF920F931F93CF930B
:100C0000DF937B018C010E94D505EB010EC00E9491
:100C1000D5056C1B7D0B685E7340C8F30894E10832
:100C2000F10801091109C851DC4FE114F104010573
:100C3000110569F7DF91CF911F910F91FF90EF9010
:100C40000895789484B5826084BD84B5816084BD44
:100C500085B5826085BD85B5816085BDEEE6F0E035
:100C6000808181608083E1E8F0E010828081826091
:100C70008083808181608083E0E8F0E08081816012
:100C80008083E1EBF0E0808184608083E0EBF0E042
:100C9000808181608083EAE7F0E0808184608083E6
:100CA0008081826080838081816080838081806890
:100CB00080831092C1000895CF93DF93482F50E0B6
:100CC000CA0186569F4FFC0134914A575F4FFA0183
:100CD0008491882369F190E0880F991FFC01E859FD
:100CE000FF4FA591B491FC01EE58FF4FC591D491EF
:100CF000662351F42FB7F8948C91932F9095892304
:100D00008C93888189230BC0623061F42FB7F894EB
:100D10008C91932F909589238C938881832B888342
:100D20002FBF06C09FB7F8948C91832B8C939FBFE5
:100D3000DF91CF910895833071F0843028F48130B1
:100D4000A1F0823021F514C08630B1F08730D1F0A7
:100D50008430E9F404C0809180008F7703C08091D3
:100D600080008F7D80938000089584B58F7702C0C6
:100D700084B58F7D84BD08958091B0008F77809376
:100D8000B00008958091B0008F7D8093B0000895E9
:100D9000FF920F931F93F62E482F50E0CA01825501
:100DA0009F4FFC012491CA0186569F4FFC0114916C
:100DB0004A575F4FFA0104910023C9F0222319F02A
:100DC000822F0E949B06E02FF0E0EE0FFF1FEE58EF
:100DD000FF4FA591B4919FB7F894FF2021F48C9117
:100DE0001095812302C08C91812B8C939FBF1F9102
:100DF0000F91FF9008950F931F93482F50E0CA0161
:100E000082559F4FFC012491CA0186569F4FFC01D9
:100E100004914A575F4FFA011491112319F420E00D
:100E200030E015C0222319F0822F0E949B06812FEB
:100E300090E0880F991F84589F4FFC01A591B491B1
:100E40008C9120E030E0802311F021E030E0C901F6
:100E50001F910F910895A1E21A2EAA1BBB1BFD0141
:100E60000DC0AA1FBB1FEE1FFF1FA217B307E40789
:100E7000F50720F0A21BB30BE40BF50B661F771FE1
:100E8000881F991F1A9469F76095709580959095C1
:100E90009B01AC01BD01CF010895EE0FFF1F05902E
:0A0EA000F491E02D0994F894FFCFBF
:100EAA00200061645F6D6F6546756E630061645F03
:100EBA006C65644F6E0061645F6C65644F666600C2
:100ECA0061645F5049526F6E0061645F5377697461
:100EDA0063684F6E0061645F5049526F66660061D5
:100EEA00645F5377697463684F66660061645F4242
:100EFA00656C6C00446F6F72206465616374697617
:100F0A00617465640050495220646561637469764E
:100F1A00617465640061645F6C65644F6666006154
:100F2A00645F6C65644F6E00446F6F722061637416
:100F3A00697665003500446F6F7220636C6F736564
:100F4A0064003400446F6F72206F70656E656420B0
:100F5A000050495220616374697665004D6F746967
:100F6A006F6E2064657465637465640032004D6F4A
:100F7A0074696F6E20656E64656421003300310008
:100F8A000D00020003000100040001000000001629
:0C0F9A0004BB04AC03DD03BD030604002F
:00000001FF
