:100000000C9462000C948A000C948A000C948A0070
:100010000C948A000C948A000C948A000C948A0038
:100020000C948A000C948A000C948A000C948A0028
:100030000C948A000C948A000C948A000C948A0018
:100040000C941B080C948A000C947D050C94CB0531
:100050000C948A000C948A000C948A000C948A00F8
:100060000C948A000C948A000000000024002700F1
:100070002A0000000000250028002B0000000000DE
:1000800023002600290004040404040404040202DA
:100090000202020203030303030301020408102007
:1000A0004080010204081020010204081020000012
:1000B0000007000201000003040600000000000029
:1000C0000000370711241FBECFEFD8E0DEBFCDBF41
:1000D00011E0A0E0B1E0ECE9F3E102C005900D927F
:1000E000A63AB107D9F716E0A6EAB1E001C01D9221
:1000F000AF34B107E1F710E0C4ECD0E004C02297C0
:10010000FE010E949109C23CD107C9F70E948D07E8
:100110000C94CC090C94000046EA51E00E94A50022
:100120000895FB01DC010D900020E9F71197019083
:100130000D920020E1F70895FB01DC018D91019003
:1001400080190110D9F3990B0895009731F4DA0161
:100150008D919C91009709F40EC0DC01FB013D914B
:100160002191222319F03217C9F3FACF332331F446
:10017000DA011D921C928827992708951197AF9351
:10018000BF93FB013D912191321771F4332321F488
:1001900088279927119702C01E921196FA01A19300
:1001A000B0839F918F910895222369F7EACFAEE043
:1001B000B0E0EDEDF0E00C94A3090D891E8986E016
:1001C0008C831A8309838FEF9FE79E838D839E0123
:1001D000275E3F4FCE0101966F89788DA9010E945D
:1001E000FB002F813885020F131FF80110822E9615
:1001F000E4E00C94BF09ABE0B0E0E1E0F1E00C9486
:1002000095093C012B015A01FC011782168283815A
:1002100081FD03C06FEF7FEFC6C19AE0892E1E01FA
:100220000894211C311CF3012381F20123FD8591E7
:1002300023FF81912F01882309F4B2C1853239F45B
:1002400023FD859123FF81912F01853229F490E0D0
:10025000B3010E94EE02E7CF982FFF24EE249924E9
:10026000FFE1FF15D0F09B3269F09C3228F4903208
:1002700059F0933291F40EC09D3249F0903369F4F5
:1002800041E024C052E0F52A84E0F82A28C098E032
:10029000F92A25C0E0E1FE2A22C0F7FC29C0892FF7
:1002A00080538A3070F4F6FE05C0989C902C11247F
:1002B000980E15C0E89CE02C1124E80EF0E2FF2A0D
:1002C0000EC09E3229F4F6FC6BC140E4F42A07C04C
:1002D0009C3619F450E8F52A02C0983649F4F20128
:1002E00023FD959123FF91912F01992309F0B8CF18
:1002F000892F8554833018F08052833038F444E0DD
:1003000050E0A40EB51E5FE359830FC0933631F061
:10031000933779F0933509F056C020C0F5018081FC
:10032000898342E050E0A40EB51E610101E010E0B7
:1003300012C0F501C080D180F6FC03C06FEF7FEFE3
:1003400002C0692D70E042E050E0A40EB51EC60167
:100350000E94E3028C015FE7F52214C0F501C08022
:10036000D180F6FC03C06FEF7FEF02C0692D70E013
:1003700042E050E0A40EB51EC6010E94D8028C01D6
:1003800050E8F52AF3FE07C01AC080E290E0B301FE
:100390000E94EE02EA948E2D90E008171907A8F348
:1003A0000EC0F601F7FC8591F7FE81916F0190E098
:1003B000B3010E94EE02E110EA94015010400115D1
:1003C000110579F7EAC0943611F0993669F5F7FE10
:1003D00008C0F501208131814281538184E090E0A1
:1003E0000AC0F501808191819C01442737FD409529
:1003F000542F82E090E0A80EB91E9FE6F92257FF25
:1004000009C050954095309521953F4F4F4F5F4F14
:10041000E0E8FE2ACA01B901A1012AE030E00E9409
:100420001A03D82ED21840C0953729F41F2D1F7EED
:100430002AE030E01DC01F2D197F9F3661F09037F4
:1004400020F4983509F0ACC00FC0903739F09837D8
:1004500009F0A6C004C028E030E00AC0106114FD15
:10046000146020E130E004C014FD166020E132E0A9
:1004700017FF08C0F501608171818281938144E09A
:1004800050E008C0F50180819181BC0180E090E0DE
:1004900042E050E0A40EB51EA1010E941A03D82E1E
:1004A000D2188FE7F82EF122F6FE0BC05EEFF52290
:1004B000D91438F4F4FE07C0F2FC05C08FEEF82220
:1004C00002C01D2D01C0192DF4FE0DC0FE01ED0D61
:1004D000F11D8081803319F499EEF92208C01F5F65
:1004E000F2FE05C003C08F2D867809F01F5F0F2D27
:1004F000F3FC14C0F0FE0FC01E1510F09D2C0BC0B5
:100500009D2C9E0C911A1E2D06C080E290E0B30136
:100510000E94EE021F5F1E15C0F304C01E1510F4EA
:10052000E11A01C0EE2404FF0FC080E390E0B301A4
:100530000E94EE0202FF1DC001FD03C088E790E0AB
:100540000EC088E590E00BC0802F867891F001FF07
:1005500002C08BE201C080E2F7FC8DE290E0B301C3
:100560000E94EE0206C080E390E0B3010E94EE021A
:100570009A94D914C0F3DA94F101ED0DF11D808144
:1005800090E0B3010E94EE02DD20A9F706C080E2F0
:1005900090E0B3010E94EE02EA94EE20C1F743CE50
:1005A000F30166817781CB012B96E2E10C94B109CE
:1005B000FC010590615070400110D8F7809590952E
:1005C0008E0F9F1F0895FC01615070400190011033
:1005D000D8F7809590958E0F9F1F08950F931F93C6
:1005E000CF93DF938C01EB018B8181FF1BC082FFD6
:1005F0000DC02E813F818C819D812817390764F4BD
:10060000E881F9810193F983E88306C0E885F985DB
:10061000802F0995892B31F48E819F8101969F83CC
:100620008E8302C00FEF1FEFC801DF91CF911F91A2
:100630000F910895FA01AA27283051F1203181F154
:10064000E8946F936E7F6E5F7F4F8F4F9F4FAF4FDA
:10065000B1E03ED0B4E03CD0670F781F891F9A1FED
:10066000A11D680F791F8A1F911DA11D6A0F711DA1
:10067000811D911DA11D20D009F468943F912AE0AD
:10068000269F11243019305D3193DEF6CF01089595
:10069000462F4770405D4193B3E00FD0C9F7F6CFC6
:1006A000462F4F70405D4A3318F0495D31FD40528E
:1006B000419302D0A9F7EACFB4E0A6959795879524
:1006C00077956795BA95C9F7009761057105089503
:1006D0009B01AC010A2E06945795479537952795AF
:1006E000BA95C9F7620F731F841F951FA01D089547
:1006F000BC018091A801882321F084E296E00E9449
:10070000020808950F931F93DF93CF93CDB7DEB701
:1007100065970FB6F894DEBF0FBECDBF9C01DE011A
:100720001196E6E0F1E085E101900D928150E1F74C
:100730008DB79EB708970FB6F8949EBF0FBE8DBFBA
:10074000EDB7FEB7319609EA11E0ADB7BEB7129624
:100750001C930E93119780E091E093838283CE01E6
:10076000019695838483378326830E94D7008DB7B3
:100770009EB708960FB6F8949EBF0FBE8DBFC801F6
:100780000E94780365960FB6F894DEBF0FBECDBF0A
:10079000CF91DF911F910F9108950F931F93DF93D6
:1007A000CF93CDB7DEB763970FB6F894DEBF0FBE19
:1007B000CDBF9C01DE011196EBE1F1E083E10190F8
:1007C0000D928150E1F78DB79EB708970FB6F89458
:1007D0009EBF0FBE8DBFEDB7FEB7319609EA11E09F
:1007E000ADB7BEB712961C930E93119780E091E0BF
:1007F00093838283CE0101969583848337832683F6
:100800000E94D7008DB79EB708960FB6F8949EBF8A
:100810000FBE8DBFC8010E94780363960FB6F8948F
:10082000DEBF0FBECDBFCF91DF911F910F91089515
:100830000F931F93DF93CF93CDB7DEB762970FB6B9
:10084000F894DEBF0FBECDBF9C01DE011196EEE233
:10085000F1E082E101900D928150E1F78DB79EB7F2
:1008600008970FB6F8949EBF0FBE8DBFEDB7FEB7C9
:10087000319609EA11E0ADB7BEB712961C930E93FC
:10088000119780E091E093838283CE010196958356
:100890008483378326830E94D7008DB79EB708963E
:1008A0000FB6F8949EBF0FBE8DBFC8010E9478039B
:1008B00062960FB6F894DEBF0FBECDBFCF91DF9129
:1008C0001F910F910895CF93DF9360E471E00E9430
:1008D0008C00EC0163E471E00E949C00009711F42D
:1008E0000E94A204CE016BE471E00E949C0000977C
:1008F00011F40E94C004CE0164E571E00E949C00E6
:10090000009711F40E94BB04CE016EE571E00E94D5
:100910009C00009711F40E94B404CE016FE671E0D0
:100920000E949C00009711F40E94AD04CE0161E882
:1009300071E00E949C00009711F40E94A604DF91D0
:10094000CF91089581E08093A80108958091960544
:10095000909197050E948203089580919805909147
:1009600099050E94CD030895809194059091950575
:100970000E94180408958DE060E00E940A0908951D
:100980008DE061E00E940A0908951F9311E012C0F2
:1009900084E296E00E94BE06809392058DE993E082
:1009A00062E975E00E949100809192058A3011F40D
:1009B0001093910584E296E00E948D06892B41F701
:1009C0001F9108950F931F9380919105882379F0CB
:1009D0000DE913E0C8010E94630484EF91E0F8017F
:1009E0009C01119221503040E1F7109291050E9434
:1009F00076051F910F9108950F931F9304E216E05F
:100A0000C80140E855E260E070E00E940606C801B7
:100A100040E157E260E070E00E9415088DE061E07F
:100A20000E949E0883E060E00E949E0884E060E0EF
:100A30000E949E0885E060E00E949E081092930547
:100A40001092920584EF91E0EDE9F3E0DF019C0163
:100A50001D9221503040E1F71092A8011F910F9193
:100A6000089584E00E943D099C0190939B0580932A
:100A70009A0580919605909197058217930739F012
:100A80003093970520939605C9010E94820308952B
:100A900085E00E943D099C0190939B0580939A05F7
:100AA00080919805909199058217930739F03093BA
:100AB000990520939805C9010E94CD03089583E00C
:100AC0000E943D099C0190939B0580939A0580911B
:100AD0009405909195058217930739F03093950509
:100AE00020939405C9010E94180408950E945F058F
:100AF0000E9448050E94310508951F920F920FB67B
:100B00000F9211242F933F934F938F939F93EF93C3
:100B1000FF938091C00082FD1DC04091C6002091CE
:100B2000DC053091DD052F5F3F4F2F7330708091D2
:100B3000DE059091DF052817390771F0E091DC059B
:100B4000F091DD05E456FA4F40833093DD052093A4
:100B5000DC0502C08091C600FF91EF919F918F91BB
:100B60004F913F912F910F900FBE0F901F901895AE
:100B7000E0913006F0913106E05CFF4F8191919158
:100B800020813181821B930B8F739070892B11F020
:100B90000E94C50408951F920F920FB60F92112460
:100BA0002F933F938F939F93EF93FF932091200672
:100BB000309121068091220690912306281739074B
:100BC00031F48091C1008F7D8093C10014C0E09109
:100BD0002206F0912306E052FA4F208180912206EE
:100BE0009091230601968F739070909323068093C3
:100BF00022062093C600FF91EF919F918F913F9124
:100C00002F910F900FBE0F901F901895AF92BF922B
:100C1000DF92EF92FF920F931F93CF93DF93EC013C
:100C20007A018B01DD24403081EE580780E06807AF
:100C300080E0780711F0DD24D39491E0A92EB12C47
:100C4000EC89FD89DD2069F0C50108A002C0880F8C
:100C5000991F0A94E2F7808360E079E08DE390E0E9
:100C600005C0108260E874E88EE190E0A801970169
:100C70000E946D09215030404040504056954795A4
:100C80003795279580E12030380720F0DD2011F0DE
:100C9000DD24D6CFE889F9893083EA89FB8920836E
:100CA00019A2EE89FF89408121E030E0C9010C8C56
:100CB00002C0880F991F0A94E2F7482B4083EE89FF
:100CC000FF894081C9010D8C02C0880F991F0A94C9
:100CD000E2F7482B4083EE89FF894081C9010E8CE1
:100CE00002C0880F991F0A94E2F7482B4083EE89CF
:100CF000FF8980810F8C02C0220F331F0A94E2F714
:100D0000209528232083DF91CF911F910F91FF9091
:100D1000EF90DF90BF90AF900895DC011C96ED91AD
:100D2000FC911D97E05CFF4F219131918081918171
:100D3000281B390B2F733070C9010895DC011C96F4
:100D4000ED91FC911D97E05CFF4F20813181E054D3
:100D5000F040DF01AE5BBF4F8D919C91119728173A
:100D6000390719F42FEF3FEF07C08D919C91E80FE1
:100D7000F91F8081282F30E0C9010895DC011C96FD
:100D8000ED91FC911D97E05CFF4F20813181E05493
:100D9000F040DF01AE5BBF4F8D919C9111972817FA
:100DA000390719F42FEF3FEF10C08D919C911197E7
:100DB000E80FF91F20818D919C91119701968F73F7
:100DC000907011969C938E9330E0C9010895DC01D8
:100DD00091968C919197882339F05496ED91FC91DE
:100DE0005597808186FFF9CF91961C920895CF93F5
:100DF000DF93EC01EE85FF85E05CFF4F20813181C0
:100E0000E054F0402F5F3F4F2F733070DF01AE5B37
:100E1000BF4F8D919C91119728173907D1F3E05C52
:100E2000FF4F80819181E054F040E80FF91F60830B
:100E3000EE85FF85E05CFF4F31832083EE89FF89DB
:100E4000208181E090E00F8C02C0880F991F0A94E6
:100E5000E2F7282B208381E089A3EC89FD8980813A
:100E60008064808381E090E0DF91CF9108951092BB
:100E700027061092260688EE93E0A0E0B0E080936B
:100E8000280690932906A0932A06B0932B0689E999
:100E900091E090932506809324068CE995E0909349
:100EA00031068093300680EE95E090933306809370
:100EB000320685EC90E0909335068093340684ECFE
:100EC00090E0909337068093360680EC90E0909304
:100ED00039068093380681EC90E090933B0680932E
:100EE0003A0682EC90E090933D0680933C0686ECB7
:100EF00090E090933F0680933E0684E08093400606
:100F000083E08093410687E08093420685E08093EA
:100F1000430681E0809344060895CF93DF930E94B7
:100F200063080E94FC04C8EBD5E00E94E20420970D
:100F3000E1F30E94B805F9CFCF92DF92EF92FF92D2
:100F40000F931F93CF93DF937C016B018A01C0E065
:100F5000D0E00FC0D6016D916D01D701ED91FC91EC
:100F60000190F081E02DC7010995C80FD91F0150EC
:100F700010400115110571F7CE01DF91CF911F913E
:100F80000F91FF90EF90DF90CF900895EF92FF9236
:100F90000F931F938C01DC01ED91FC910190F08186
:100FA000E02D6DE009957C01D801ED91FC91019057
:100FB000F081E02DC8016AE009959C012E0D3F1DCE
:100FC000C9011F910F91FF90EF900895CF93DF9388
:100FD000EC016115710519F420E030E00FC0DB0170
:100FE0000D900020E9F71197A61BB70BE881F98156
:100FF0000280F381E02DAD0109959C01C901DF91CB
:10100000CF910895EF92FF920F931F937C010E945E
:10101000E6078C01C7010E94C607080F191FC80107
:101020001F910F91FF90EF900895FC014483558329
:101030006683778308951F920F920FB60F92112443
:101040002F933F938F939F93AF93BF9380914A06C3
:1010500090914B06A0914C06B0914D0630914E06F2
:101060000196A11DB11D232F2D5F2D3720F02D5787
:101070000196A11DB11D20934E0680934A069093C0
:101080004B06A0934C06B0934D0680914606909176
:101090004706A0914806B09149060196A11DB11DD1
:1010A0008093460690934706A0934806B09349065E
:1010B000BF91AF919F918F913F912F910F900FBE54
:1010C0000F901F901895789484B5826084BD84B584
:1010D000816084BD85B5826085BD85B5816085BD33
:1010E000EEE6F0E0808181608083E1E8F0E010824C
:1010F000808182608083808181608083E0E8F0E08D
:10110000808181608083E1EBF0E080818460808376
:10111000E0EBF0E0808181608083EAE7F0E08081AD
:10112000846080838081826080838081816080830D
:101130008081806880831092C1000895CF93DF93EF
:10114000482F50E0CA0186569F4FFC0134914A5700
:101150005F4FFA018491882369F190E0880F991F0D
:10116000FC01E859FF4FA591B491FC01EE58FF4FE7
:10117000C591D491662351F42FB7F8948C91932F95
:10118000909589238C93888189230BC0623061F408
:101190002FB7F8948C91932F909589238C93888105
:1011A000832B88832FBF06C09FB7F8948C91832B25
:1011B0008C939FBFDF91CF910895833071F084307D
:1011C00028F48130A1F0823021F514C08630B1F0CE
:1011D0008730D1F08430E9F404C0809180008F77AB
:1011E00003C0809180008F7D80938000089584B536
:1011F0008F7702C084B58F7D84BD08958091B00043
:101200008F778093B00008958091B0008F7D809398
:10121000B0000895FF920F931F93F62E482F50E0D1
:10122000CA0182559F4FFC012491CA0186569F4FE7
:10123000FC0114914A575F4FFA0104910023C9F051
:10124000222319F0822F0E94DD08E02FF0E0EE0F3C
:10125000FF1FEE58FF4FA591B4919FB7F894FF2060
:1012600021F48C911095812302C08C91812B8C9359
:101270009FBF1F910F91FF9008950F931F93482FC9
:1012800050E0CA0182559F4FFC012491CA01865645
:101290009F4FFC0104914A575F4FFA0114911123AB
:1012A00019F420E030E015C0222319F0822F0E94AB
:1012B000DD08812F90E0880F991F84589F4FFC0113
:1012C000A591B4918C9120E030E0802311F021E0D1
:1012D00030E0C9011F910F910895A1E21A2EAA1BB7
:1012E000BB1BFD010DC0AA1FBB1FEE1FFF1FA217D6
:1012F000B307E407F50720F0A21BB30BE40BF50BD3
:10130000661F771F881F991F1A9469F7609570955B
:10131000809590959B01AC01BD01CF010895EE0F22
:10132000FF1F0590F491E02D09942F923F924F9268
:101330005F926F927F928F929F92AF92BF92CF9265
:10134000DF92EF92FF920F931F93CF93DF93CDB76E
:10135000DEB7CA1BDB0B0FB6F894DEBF0FBECDBFE6
:1013600009942A88398848885F846E847D848C84B7
:101370009B84AA84B984C884DF80EE80FD800C81C0
:101380001B81AA81B981CE0FD11D0FB6F894DEBFA3
:0C1390000FBECDBFED010895F894FFCF13
:10139C0025732025640070695F72657475726E53D5
:1013AC00776974636856616C75650070695F726506
:1013BC007475726E42656C6C56616C756500706903
:1013CC005F72657475726E50697256616C756500EA
:1013DC00200A0061645F696E69740061645F6C650A
:1013EC00644F6E0061645F6C65644F666600616497
:1013FC005F7265717565737450697256616C0061CA
:10140C00645F7265717565737442656C6C56616C62
:10141C000061645F72657175657374537769746389
:10142C006856616C0000000000F7069C078D06BE34
:06143C00069E06E7060013
:00000001FF
