:100000000C9403010C9430010C9430010C943001D9
:100010000C9430010C9430010C9430010C9430019C
:100020000C9430010C9430010C9430010C9430018C
:100030000C9430010C9430010C9430010C9430017C
:100040000C9430010C9430010C9430010C9430016C
:100050000C9430010C9430010C9430010C94CB07BB
:100060000C9430010C942B020C9477030C94300107
:100070000C9430010C9430010C9430010C9430013C
:100080000C9430010C9430010C9430010C9430012C
:100090000C946B020C94B6030C9430010C94300158
:1000A0000C9430010C9430010C9430010C9430010C
:1000B0000C9430010C9430010C9430010C943001FC
:1000C0000C9430010C9430010C9430010C94AB0270
:1000D0000C94F5030C9430010C94EB020C94340452
:1000E0000C94300100002100240027002A002D007C
:1000F0003000330001010000040107010A01000083
:100100002200250028002B002E00310034000201BF
:100110000000050108010B0100002000230026005B
:1001200029002C002F00320000010000030106010D
:10013000090105050505070508080808020202026D
:100140000A0A080804040404010101010101010173
:100150000303030303030303040707070C0C0C0C3E
:100160000C0C0C0C02020202060606060606060627
:100170000B0B0B0B0B0B0B0B0102102020080810B4
:100180002040102040800201020108040201010207
:1001900004081020408080402010080402018004E0
:1001A000020180402010080402010804020101023B
:1001B0000408102040800102040810204080000044
:1001C000090A02080B0C0D070603040100000000D9
:1001D000000000000000000000000000000000001F
:1001E0000000000000000000000011100F000000DF
:1001F00000000000000000000000000000000000FF
:1002000000000000A70511241FBECFEFD1E2DEBF22
:10021000CDBF00E00CBF12E0A0E0B2E0EAE4F3E101
:1002200000E00BBF02C007900D92A834B107D9F7C8
:100230001BBE16E0A8E4B2E001C01D92A13FB107C9
:10024000E1F712E0C6E0D2E004C02297FE010E946E
:100250009F09C430D107C9F70E94DD060C94A30999
:100260000C940000FC0188279927E8942191203202
:10027000E9F3293010F02E30C8F32B3241F02D3243
:1002800039F4689404C00E949001820F911D21915D
:1002900020532A30C0F31EF4909581959F4F089506
:1002A00048E452E00E945E010895FB01DC018D915B
:1002B000019080190110D9F3990B0895009731F43A
:1002C000DA018D919C91009709F40EC0DC01FB01CD
:1002D0003D912191222319F03217C9F3FACF33232C
:1002E00031F4DA011D921C928827992708951197FD
:1002F000AF93BF93FB013D912191321771F43323EA
:1003000021F488279927119702C01E921196FA01AD
:10031000A193B0839F918F910895222369F7EACF2B
:100320007AE0979F902D879F802D910D112408953D
:10033000CF93DF9360E072E00E945001EC0162E035
:1003400072E00E945501009751F480E090E060E077
:1003500072E00E9450010E9432010E94CD01CE0144
:100360006DE072E00E945501009711F40E94DE01D9
:10037000CE0166E172E00E945501009711F40E94DF
:10038000D301CE0160E272E00E945501009711F4A2
:100390000E94CE01DF91CF91089508958DE061E034
:1003A0000E944509089580E696E065E272E00E94A9
:1003B0003D078DE060E00E944509089580E696E0E3
:1003C0006FE272E00E943D078DE061E00E94450906
:1003D0000895CF93DF93CAE4D2E080E696E06AE026
:1003E000AE0123EF31E00E94950790933F04809384
:1003F0003E04CE010E94980180913E0490913F04FA
:10040000892B61F084EF91E0FE019C011192215053
:100410003040E1F710923F0410923E04DF91CF91FB
:1004200008950F931F9300E616E0C80140E855E2D7
:1004300060E070E00E947304C80140E157E260E0B0
:1004400070E00E9463078DE061E00E9483081F91C5
:100450000F91089508951F920F920FB60F920BB649
:100460000F9211242F933F934F938F939F93EF936A
:10047000FF938091C00082FD2AC04091C600209168
:100480008004309181042F5F3F4F2F733070809133
:100490008204909183042817390759F0E091800471
:1004A000F0918104E05CFB4F408330938104209302
:1004B0008004FF91EF919F918F914F913F912F91E8
:1004C0000F900BBE0F900FBE0F901F90189580914C
:1004D000C600EFCF08951F920F920FB60F920BB682
:1004E0000F9211242F933F934F938F939F93EF93EA
:1004F000FF938091C80082FD2AC04091CE002091D8
:100500000805309109052F5F3F4F2F7330708091A0
:100510000A0590910B052817390759F0E091080555
:10052000F0910905E853FB4F408330930905209370
:100530000805FF91EF919F918F914F913F912F91DE
:100540000F900BBE0F900FBE0F901F9018958091CB
:10055000CE00EFCF08951F920F920FB60F920BB6F9
:100560000F9211242F933F934F938F939F93EF9369
:10057000FF938091D00082FD2AC04091D600209147
:100580009005309191052F5F3F4F2F733070809110
:100590009205909193052817390759F0E09190053D
:1005A000F0919105E05BFA4F4083309391052093E1
:1005B0009005FF91EF919F918F914F913F912F91D6
:1005C0000F900BBE0F900FBE0F901F90189580914B
:1005D000D600EFCF08951F920F920FB60F920BB671
:1005E0000F9211242F933F934F938F939F93EF93E9
:1005F000FF938091300182FD2AC040913601209105
:100600001806309119062F5F3F4F2F73307080917D
:100610001A0690911B062817390759F0E091180621
:10062000F0911906E852FA4F40833093190620934F
:100630001806FF91EF919F918F914F913F912F91CC
:100640000F900BBE0F900FBE0F901F9018958091CA
:100650003601EFCFE0916C06F0916D06E05CFF4F44
:100660008191919120813181821B930B8F739070C6
:10067000892BD1F5E0918E06F0918F06E05CFF4F5B
:100680008191919120813181821B930B8F739070A6
:10069000892B39F5E091B006F091B106E05CFF4F8F
:1006A0008191919120813181821B930B8F73907086
:1006B000892BA1F4E091D206F091D306E05CFF4FC4
:1006C0008191919120813181821B930B8F73907066
:1006D000892B09F408950E94EA0208950E94AA0253
:1006E000E9CF0E946A02D6CF0E942A02C3CF1F928E
:1006F0000F920FB60F920BB60F9211242F933F93C8
:100700008F939F93EF93FF932091C4043091C5047E
:100710008091C6049091C7042817390709F1E09128
:10072000C604F091C704EC57FB4F20818091C604AA
:100730009091C70401968F7390709093C704809333
:10074000C6042093C600FF91EF919F918F913F9136
:100750002F910F900BBE0F900FBE0F901F9018950A
:100760008091C1008F7D8093C100EDCF1F920F92C9
:100770000FB60F920BB60F9211242F933F938F93C6
:100780009F93EF93FF9320914C0530914D058091FD
:100790004E0590914F052817390709F1E0914E0554
:1007A000F0914F05E45FFA4F208180914E059091C2
:1007B0004F0501968F73907090934F0580934E056F
:1007C0002093CE00FF91EF919F918F913F912F91B8
:1007D0000F900BBE0F900FBE0F901F901895809139
:1007E000C9008F7D8093C900EDCF1F920F920FB685
:1007F0000F920BB60F9211242F933F938F939F93D9
:10080000EF93FF932091D4053091D5058091D605C3
:100810009091D7052817390709F1E091D605F09195
:10082000D705EC56FA4F20818091D6059091D705D7
:1008300001968F7390709093D7058093D60520937F
:10084000D600FF91EF919F918F913F912F910F9043
:100850000BBE0F900FBE0F901F9018958091D10086
:100860008F7D8093D100EDCF1F920F920FB60F9224
:100870000BB60F9211242F933F938F939F93EF9377
:10088000FF9320915C0630915D0680915E06909109
:100890005F062817390709F1E0915E06F0915F06BF
:1008A000E45EF94F208180915E0690915F0601968B
:1008B0008F73907090935F0680935E06209336014D
:1008C000FF91EF919F918F913F912F910F900BBED0
:1008D0000F900FBE0F901F901895809131018F7D62
:1008E00080933101EDCFDF92EF92FF920F931F9330
:1008F000CF93DF93EC017A018B01DD24403081EE50
:10090000580780E0680780E0780721F1DD24D39460
:10091000EC89FD8981E090E008A002C0880F991F52
:100920000A94E2F7808360E079E08DE390E0A8012B
:1009300097010E947B09215030404040504056951D
:1009400047953795279580E120303807D0F0DD2096
:10095000C1F0DD24EC89FD89108260E874E88EE145
:1009600090E0A80197010E947B092150304040404F
:100970005040569547953795279580E120303807A8
:1009800030F7E889F9893083EA89FB89208319A245
:10099000EE89FF89408121E030E0C9010C8C02C062
:1009A000880F991F0A94E2F7482B4083EE89FF894C
:1009B0004081C9010D8C02C0880F991F0A94E2F78B
:1009C000482B4083EE89FF894081C9010E8C02C00B
:1009D000880F991F0A94E2F7482B4083EE89FF891C
:1009E00080810F8C02C0220F331F0A94E2F72095FA
:1009F00028232083DF91CF911F910F91FF90EF90DB
:100A0000DF900895DC011C96ED91FC911D97E05C50
:100A1000FF4F2191319180819181281B390B2F73D8
:100A20003070C9010895DC011C96ED91FC911D9771
:100A3000E05CFF4F20813181E054F040DF01AE5B8C
:100A4000BF4F8D919C9111972817390749F08D91CF
:100A50009C91E80FF91F8081282F30E0C90108958B
:100A60002FEF3FEFC9010895DC011C96ED91FC9139
:100A70001D97E05CFF4F20813181E054F040DF01A1
:100A8000AE5BBF4F8D919C9111972817390791F05C
:100A90008D919C911197E80FF91F20818D919C9168
:100AA000119701968F73907011969C938E9330E0FE
:100AB000C90108952FEF3FEFC9010895FC0181A1FD
:100AC000882311F411A20895A489B5898C9186FF19
:100AD000FDCF11A20895CF93DF93EC01AE85BF85C2
:100AE000AD01405C5F4FFA01208131812F5F3F4FA4
:100AF0002F733070FD01EE5BFF4F808191812817CD
:100B00003907D9F3FA0180819181A80FB91F6C933D
:100B1000EE85FF85E05CFF4F31832083EE89FF89FE
:100B2000208181E090E00F8C02C0880F991F0A9409
:100B3000E2F7282B208381E089A3EC89FD8980815D
:100B40008064808381E090E0DF91CF9108951F93CE
:100B5000109263061092620628EE33E040E050E007
:100B600020936406309365064093660650936706AB
:100B70006CE372E0709361066093600680E494E039
:100B800090936D0680936C0684E894E090936F06D2
:100B900080936E0685EC90E09093710680937006CA
:100BA00084EC90E0909373068093720680EC90E062
:100BB000909375068093740681EC90E0909377068D
:100BC0008093760682EC90E0909379068093780685
:100BD00086EC90E090937B0680937A0614E0109365
:100BE0007C06B3E0B0937D06A7E0A0937E06F5E017
:100BF000F0937F06E1E0E093800610928506109264
:100C00008406209386063093870640938806509387
:100C10008906709383066093820688EC94E0909333
:100C20008F0680938E068CE095E0909391068093DA
:100C300090068DEC90E090939306809392068CEC56
:100C400090E0909395068093940688EC90E09093C2
:100C500097068093960689EC90E09093990680938E
:100C600098068AEC90E090939B0680939A068EEC0F
:100C700090E090939D0680939C0610939E06B093FF
:100C80009F06A093A006F093A106E093A2061092FF
:100C9000A7061092A6062093A8063093A9064093B3
:100CA000AA065093AB067093A5066093A40680E550
:100CB00095E09093B1068093B00684E995E0909317
:100CC000B3068093B20685ED90E09093B5068093CD
:100CD000B40684ED90E09093B7068093B60680ED5D
:100CE00090E09093B9068093B80681ED90E09093E0
:100CF000BB068093BA0682ED90E09093BD06809388
:100D0000BC0686ED90E09093BF068093BE061093DC
:100D1000C006B093C106A093C206F093C306E09349
:100D2000C4061092C9061092C8062093CA063093D2
:100D3000CB064093CC065093CD067093C7066093C4
:100D4000C60688ED95E09093D3068093D2068CE199
:100D500096E09093D5068093D40685E391E0909336
:100D6000D7068093D60684E391E09093D9068093CA
:100D7000D80680E391E09093DB068093DA0681E366
:100D800091E09093DD068093DC0682E391E09093FE
:100D9000DF068093DE0686E391E09093E106809380
:100DA000E0061093E206B093E306A093E406F09306
:100DB000E506E093E6061F9108950E9421080E942F
:100DC00011020E94E9018AE293E0892B29F00E9436
:100DD0002A030E94E901FBCF0E94E9010E94E90178
:100DE000FBCFCF92DF92EF92FF920F931F93CF939F
:100DF000DF937C016B01EA0141155105D9F000E058
:100E000010E0D6016D916D01D701ED91FC9101903B
:100E1000F081E02DC7011995080F191F219789F757
:100E2000C801DF91CF911F910F91FF90EF90DF905C
:100E3000CF90089500E010E0F3CFEF92FF920F9370
:100E40001F938C01DC01ED91FC910190F081E02D6C
:100E50006DE019957C01D801ED91FC910190F08134
:100E6000E02DC8016AE019959C012E0D3F1DC901B6
:100E70001F910F91FF90EF9008950F931F93CF93C1
:100E8000DF93EC0161157105D9F0DB010D900020B5
:100E9000E9F71197A61BB70BE881F9810280F3816E
:100EA000E02DAD0119958C01CE010E941D0798011E
:100EB000280F391FC901DF91CF911F910F9108951C
:100EC00000E010E0F1CFFC01448355836683778313
:100ED0000895CF93DF93EC010E9413086887798708
:100EE0008A879B87E881F9810680F781E02DCE0112
:100EF00019959C0197FF15C00E9413082885398514
:100F00004A855B85621B730B840B950B2C813D819D
:100F10004E815F81621773078407950718F32FEFDF
:100F20003FEFC901DF91CF910895AF92BF92CF9269
:100F3000DF92EF92FF920F931F93CF93DF935C01A9
:100F40008A0169012115310519F1C0E0D0E0E62ED2
:100F5000FF24E7FCF0940BC08E159F0569F0F801A3
:100F600080832196CC15DD0538F40F5F1F4FC50136
:100F70000E94690797FFF0CFCE01DF91CF911F91BB
:100F80000F91FF90EF90DF90CF90BF90AF900895BA
:100F9000C0E0D0E0F1CF1F920F920FB60F92112454
:100FA0002F933F938F939F93AF93BF938091EC06C2
:100FB0009091ED06A091EE06B091EF063091F0060B
:100FC0000196A11DB11D232F2D5F2D3720F02D5728
:100FD0000196A11DB11D2093F0068093EC0690931D
:100FE000ED06A093EE06B093EF068091E80690918F
:100FF000E906A091EA06B091EB060196A11DB11D8C
:101000008093E8069093E906A093EA06B093EB0676
:10101000BF91AF919F918F913F912F910F900FBEF4
:101020000F901F9018958FB7F8942091EC0630918F
:10103000ED064091EE065091EF068FBFB901CA014F
:101040000895789484B5826084BD84B5816084BD40
:1010500085B5826085BD85B5816085BDEEE6F0E031
:10106000808181608083E1E8F0E01082808182608D
:101070008083808181608083E0E8F0E0808181600E
:101080008083E1EBF0E0808184608083E0EBF0E03E
:10109000808181608083E1E9F0E0808182608083EB
:1010A000808181608083E0E9F0E0808181608083DD
:1010B000E1EAF0E0808182608083808181608083CA
:1010C000E0EAF0E0808181608083E1E2F1E080810C
:1010D00082608083808181608083E0E2F1E08081B2
:1010E00081608083EAE7F0E0808184608083808192
:1010F000826080838081816080838081806880833A
:101100001092C1000895CF93DF93482F50E0CA0199
:1011100088589E4FFC0134914E5C5E4FFA018491D9
:101120008823B9F090E0880F991FFC01EC51FF4F24
:10113000A591B491FC01E250FF4FC591D491662373
:1011400059F06230B9F09FB7F8948C91832B8C934F
:101150009FBFDF91CF9108952FB7F8948C91932F73
:10116000909589238C938881892388832FBFDF9171
:10117000CF9108952FB7F8948C91932F9095892350
:101180008C938881832B88832FBFE3CF893009F428
:101190005EC08A3070F08D3009F45FC08E30D0F0C0
:1011A000803109F46CC0813109F463C08F30C9F11A
:1011B0000895843009F445C08530B8F08730B9F11E
:1011C000883048F58630A1F78091B0008F77809302
:1011D000B00008958B3009F446C08C30B0F0809197
:1011E000A0008F7D8093A0000895823031F183307C
:1011F00030F48130E9F684B58F7784BD089580910D
:1012000080008F7780938000089580919000877F81
:10121000809390000895809190008F778093900044
:101220000895809120018F77809320010895809107
:10123000B0008F7D8093B000089584B58F7D84BD0C
:101240000895809180008F7D809380000895809123
:1012500090008F7D8093900008958091A000877FFB
:101260008093A00008958091A0008F778093A000C4
:10127000089580912001877F8093200108958091B7
:1012800020018F7D809320010895FF920F931F937B
:10129000F62E482F50E0CA0182549E4FFC01249143
:1012A000CA0188589E4FFC0104914E5C5E4FFA01C2
:1012B0001491112399F02223D1F4E12FF0E0EE0FE5
:1012C000FF1FE250FF4FA591B4919FB7F894FF2004
:1012D00049F48C91009580238C939FBF1F910F91AF
:1012E000FF9008958C91802B8C939FBFF7CF822F16
:1012F0000E94C608E2CFA1E21A2EAA1BBB1BFD0169
:101300000DC0AA1FBB1FEE1FFF1FA217B307E407E4
:10131000F50720F0A21BB30BE40BF50B661F771F3C
:10132000881F991F1A9469F760957095809590951C
:101330009B01AC01BD01CF010895EE0FFF1F059089
:0A134000F491E02D1994F894FFCF0A
:10134A00200061645F6D6F6546756E630061645F5E
:10135A006C65644F6E0061645F6C65644F6666001D
:10136A006D6C6F630061645F6C65644F66660061F3
:10137A00645F6C65644F6E00000000006B05F10647
:08138A000205340513055E05A0
:00000001FF
