:100000000C9462000C948A000C948A000C948A0070
:100010000C948A000C948A000C948A000C948A0038
:100020000C948A000C948A000C948A000C948A0028
:100030000C948A000C948A000C948A000C948A0018
:100040000C945A050C948A000C9477020C94C50207
:100050000C948A000C948A000C948A000C948A00F8
:100060000C948A000C948A000000000024002700F1
:100070002A0000000000250028002B0000000000DE
:1000800023002600290004040404040404040202DA
:100090000202020203030303030301020408102007
:1000A0004080010204081020010204081020000012
:1000B0000007000201000003040600000000000029
:1000C0000000310411241FBECFEFD8E0DEBFCDBF4A
:1000D00011E0A0E0B1E0E0E6FEE002C005900D9284
:1000E000A03FB107D9F714E0A0EFB1E001C01D9225
:1000F000AE39B107E1F710E0C4ECD0E004C02297BC
:10010000FE010E942A07C23CD107C9F70E9487045A
:100110000C942E070C940000FC0188279927E89482
:1001200021912032E9F3293010F02E30C8F32B3220
:1001300041F02D3239F4689404C00E94EA00820F25
:10014000911D219120532A30C0F31EF49095819582
:100150009F4F089540EF51E00E94B8000895FB01C1
:10016000DC018D91019080190110D9F3990B08954C
:10017000009731F4DA018D919C91009709F40EC03B
:10018000DC01FB013D912191222319F03217C9F3C3
:10019000FACF332331F4DA011D921C928827992774
:1001A00008951197AF93BF93FB013D9121913217B1
:1001B00071F4332321F488279927119702C01E92E6
:1001C0001196FA01A193B0839F918F9108952223F4
:1001D00069F7EACF7AE0979F902D879F802D910D48
:1001E00011240895CF93DF9360E071E00E94AA008C
:1001F000EC0183E794E0BE010E94E004CE0162E0DE
:1002000071E00E94AF00009751F480E090E060E060
:1002100071E00E94AA000E948C000E944801CE0159
:100220006DE071E00E94AF00009711F40E9463013D
:10023000CE0166E171E00E94AF00009711F40E94C8
:100240005701CE0160E271E00E94AF00009711F407
:100250000E94DD01CE0169E271E00E94AF000097CB
:1002600011F40E948B01CE0165E371E00E94AF00A2
:10027000009711F40E945001CE016FE371E00E94DB
:10028000AF00009711F40E944901DF91CF910895CA
:10029000089583E794E06CE471E00E94E00408951F
:1002A00083E794E06DE571E00E94E004089583E740
:1002B00094E06DE671E00E94E0048091D60160E078
:1002C0000E94A306089583E794E067E771E00E9427
:1002D000E0048091D60161E00E94A3060895CF93C7
:1002E000DF93EC016115710519F420E030E00FC0D7
:1002F000DB010D900020E9F71197A61BB70BE881F1
:10030000F9810280F381E02DAD0109959C01C901BD
:10031000DF91CF91089583E794E060E871E00E9457
:10032000E0048091DA010E94D6069093DD0180936B
:10033000DC01019709F58091D60160E00E94A306D7
:100340008091DE018823A1F01092DE0183E794E022
:100350006CE871E00E946F0183E794E06EE871E061
:100360000E94E00462E370E080E090E00E94D60525
:1003700081E08093F40108958091D60161E00E94AC
:10038000A3068091F4018823B9F01092F40181E072
:100390008093DE0183E794E06AE971E00E946F01D7
:1003A00083E794E06CE971E00E94E00462E370E0AE
:1003B00080E090E00E94D6050895CF93DF9383E715
:1003C00094E069EA71E00E94E0048091D8010E9403
:1003D000D606EC0181309105D1F48091D60161E01F
:1003E0000E94A3068091F2019091F301892B51F5AF
:1003F000D093F301C093F20183E794E064EB71E0E2
:100400000E94E00483E794E064EC71E019C08091FD
:10041000D60160E00E94A3068091F2019091F30161
:10042000019781F41092F3011092F20183E794E0B6
:1004300066EC71E00E94E00483E794E064ED71E013
:100440000E946F01DF91CF910895CF93DF93C5EFA5
:10045000D1E083E794E06AE0AE0123EF31E00E944F
:1004600025059093EA038093E903CE010E94F200F0
:100470008091E9039091EA03892B61F084EF91E088
:10048000FE019C01119221503040E1F71092EA03E5
:100490001092E903DF91CF9108950F931F9303E723
:1004A00014E0C80140E855E260E070E00E940003FB
:1004B000C80140E157E260E070E00E94F3048091DF
:1004C000D60161E00E9437068091D80160E00E9469
:1004D00037068091DA0160E00E9437068091DA01E8
:1004E00061E00E94A3061F910F91089508951F9245
:1004F0000F920FB60F9211242F933F934F938F9328
:100500009F93EF93FF938091C00082FD1DC04091A7
:10051000C60020912B0430912C042F5F3F4F2F7386
:10052000307080912D0490912E042817390771F0B6
:10053000E0912B04F0912C04E551FC4F4083309363
:100540002C0420932B0402C08091C600FF91EF91F0
:100550009F918F914F913F912F910F900FBE0F90D0
:100560001F901895E0917F04F0918004E05CFF4FAC
:100570008191919120813181821B930B8F739070B7
:10058000892B11F00E94760208951F920F920FB6E8
:100590000F9211242F933F938F939F93EF93FF9389
:1005A00020916F04309170048091710490917204D5
:1005B0002817390731F48091C1008F7D8093C100E5
:1005C00014C0E0917104F0917204E15DFB4F208151
:1005D000809171049091720401968F739070909342
:1005E0007204809371042093C600FF91EF919F9154
:1005F0008F913F912F910F900FBE0F901F901895E4
:10060000AF92BF92DF92EF92FF920F931F93CF931F
:10061000DF93EC017A018B01DD24403081EE580735
:1006200080E0680780E0780711F0DD24D39491E042
:10063000A92EB12CEC89FD89DD2069F0C50108A047
:1006400002C0880F991F0A94E2F7808360E079E086
:100650008DE390E005C0108260E874E88EE190E0E0
:10066000A80197010E9406072150304040405040A9
:10067000569547953795279580E12030380720F02B
:10068000DD2011F0DD24D6CFE889F9893083EA89AD
:10069000FB89208319A2EE89FF89408121E030E0A7
:1006A000C9010C8C02C0880F991F0A94E2F7482BED
:1006B0004083EE89FF894081C9010D8C02C0880FFB
:1006C000991F0A94E2F7482B4083EE89FF89408105
:1006D000C9010E8C02C0880F991F0A94E2F7482BBB
:1006E0004083EE89FF8980810F8C02C0220F331F67
:1006F0000A94E2F7209528232083DF91CF911F9160
:100700000F91FF90EF90DF90BF90AF900895DC01C4
:100710001C96ED91FC911D97E05CFF4F219131916A
:1007200080819181281B390B2F733070C901089586
:10073000DC011C96ED91FC911D97E05CFF4F208140
:100740003181E054F040DF01AE5BBF4F8D919C9151
:1007500011972817390719F42FEF3FEF07C08D9134
:100760009C91E80FF91F8081282F30E0C90108957E
:10077000DC011C96ED91FC911D97E05CFF4F208100
:100780003181E054F040DF01AE5BBF4F8D919C9111
:1007900011972817390719F42FEF3FEF10C08D91EB
:1007A0009C911197E80FF91F20818D919C911197D1
:1007B00001968F73907011969C938E9330E0C901CF
:1007C0000895DC0191968C919197882339F0549685
:1007D000ED91FC915597808186FFF9CF91961C92FF
:1007E0000895CF93DF93EC01EE85FF85E05CFF4F2A
:1007F00020813181E054F0402F5F3F4F2F733070E4
:10080000DF01AE5BBF4F8D919C911197281739077F
:10081000D1F3E05CFF4F80819181E054F040E80F1C
:10082000F91F6083EE85FF85E05CFF4F31832083F5
:10083000EE89FF89208181E090E00F8C02C0880F53
:10084000991F0A94E2F7282B208381E089A3EC8981
:10085000FD8980818064808381E090E0DF91CF9189
:100860000895109276041092750488EE93E0A0E04B
:10087000B0E08093770490937804A0937904B093C8
:100880007A0483EE91E090937404809373048BEE6A
:1008900093E09093800480937F048FE294E09093A0
:1008A00082048093810485EC90E09093840480938B
:1008B000830484EC90E0909386048093850480EC1C
:1008C00090E0909388048093870481EC90E090936B
:1008D0008A048093890482EC90E090938C04809346
:1008E0008B0486EC90E090938E0480938D0484E0DA
:1008F00080938F0483E08093900487E08093910439
:1009000085E08093920481E0809393040895CF93CF
:10091000DF930E94FC050E944D02C2EBD2E00E94D0
:1009200025022097E1F30E94B202F9CFCF92DF9225
:10093000EF92FF920F931F93CF93DF937C016B0194
:100940008A01C0E0D0E00FC0D6016D916D01D701E2
:10095000ED91FC910190F081E02DC7010995C80F40
:10096000D91F015010400115110571F7CE01DF911B
:10097000CF911F910F91FF90EF90DF90CF9008954E
:10098000EF92FF920F931F938C01DC01ED91FC918C
:100990000190F081E02D6DE009957C01D801ED9189
:1009A000FC910190F081E02DC8016AE009959C015D
:1009B0002E0D3F1DC9011F910F91FF90EF900895DB
:1009C000EF92FF920F931F937C010E946F018C01A5
:1009D000C7010E94C004080F191FC8011F910F9181
:1009E000FF90EF900895FC014483558366837783DD
:1009F0000895CF93DF93EC010E94A2056887798761
:100A00008A879B87E881F9810680F781E02DCE01F6
:100A100009959C0197FF15C00E94A205288539857C
:100A20004A855B85621B730B840B950B2C813D8182
:100A30004E815F81621773078407950718F32FEFC4
:100A40003FEFC901DF91CF910895AF92BF92CF924E
:100A5000DF92EF92FF920F931F93CF93DF935C018E
:100A60007A0189012115310519F4C0E0D0E016C0E2
:100A7000C0E0D0E0C62EDD24C7FCD0940CC0C50178
:100A80000E94F90497FD0AC08C159D0539F0F70105
:100A900081937F012196C017D10788F3CE01DF91A2
:100AA000CF911F910F91FF90EF90DF90CF90BF906B
:100AB000AF9008951F920F920FB60F9211242F93AB
:100AC0003F938F939F93AF93BF938091990490919D
:100AD0009A04A0919B04B0919C0430919D040196CE
:100AE000A11DB11D232F2D5F2D3720F02D5701960D
:100AF000A11DB11D20939D048093990490939A04A5
:100B0000A0939B04B0939C048091950490919604CB
:100B1000A0919704B09198040196A11DB11D8093F6
:100B2000950490939604A0939704B0939804BF9172
:100B3000AF919F918F913F912F910F900FBE0F908A
:100B40001F9018958FB7F8942091990430919A04CA
:100B500040919B0450919C048FBFB901CA01089534
:100B60009FB7F89420919504309196044091970492
:100B70005091980486B5A89B06C08F3F21F02F5F47
:100B80003F4F4F4F5F4F9FBF542F432F322F22278E
:100B9000280F311D411D511D82E0220F331F441FBC
:100BA000551F8A95D1F7B901CA010895EF92FF92B6
:100BB0000F931F93CF93DF937B018C010E94B005AD
:100BC000EB010EC00E94B0056C1B7D0B685E73408C
:100BD000C8F30894E108F10801091109C851DC4F74
:100BE000E114F1040105110569F7DF91CF911F911F
:100BF0000F91FF90EF900895789484B5826084BD42
:100C000084B5816084BD85B5826085BD85B5816010
:100C100085BDEEE6F0E0808181608083E1E8F0E070
:100C20001082808182608083808181608083E0E89F
:100C3000F0E0808181608083E1EBF0E0808184607E
:100C40008083E0EBF0E0808181608083EAE7F0E080
:100C500080818460808380818260808380818160E4
:100C600080838081806880831092C1000895CF9333
:100C7000DF93482F50E0CA0186569F4FFC01349104
:100C80004A575F4FFA018491882369F190E0880FF9
:100C9000991FFC01E859FF4FA591B491FC01EE5852
:100CA000FF4FC591D491662351F42FB7F8948C91DE
:100CB000932F909589238C93888189230BC0623070
:100CC00061F42FB7F8948C91932F909589238C938E
:100CD0008881832B88832FBF06C09FB7F8948C919F
:100CE000832B8C939FBFDF91CF910895833071F058
:100CF000843028F48130A1F0823021F514C0863090
:100D0000B1F08730D1F08430E9F404C080918000E4
:100D10008F7703C0809180008F7D8093800008953D
:100D200084B58F7702C084B58F7D84BD089580918E
:100D3000B0008F778093B00008958091B0008F7DD0
:100D40008093B0000895FF920F931F93F62E482FC3
:100D500050E0CA0182559F4FFC012491CA0186567A
:100D60009F4FFC0114914A575F4FFA0104910023F1
:100D7000C9F0222319F0822F0E947606E02FF0E0BE
:100D8000EE0FFF1FEE58FF4FA591B4919FB7F89457
:100D9000FF2021F48C911095812302C08C91812B2E
:100DA0008C939FBF1F910F91FF9008950F931F93F6
:100DB000482F50E0CA0182559F4FFC012491CA017F
:100DC00086569F4FFC0104914A575F4FFA011491D8
:100DD000112319F420E030E015C0222319F0822FEE
:100DE0000E947606812F90E0880F991F84589F4FAC
:100DF000FC01A591B4918C9120E030E0802311F0AA
:100E000021E030E0C9011F910F910895A1E21A2E4F
:100E1000AA1BBB1BFD010DC0AA1FBB1FEE1FFF1F9E
:100E2000A217B307E407F50720F0A21BB30BE40BEE
:100E3000F50B661F771F881F991F1A9469F7609535
:100E40007095809590959B01AC01BD01CF010895EF
:100E5000EE0FFF1F0590F491E02D0994F894FFCF59
:100E6000200061645F6D6F6546756E630061645F4D
:100E70006C65644F6E0061645F6C65644F6666000C
:100E800061645F5049526F6E0061645F53776974AB
:100E900063684F6E0061645F5049526F666600611F
:100EA000645F5377697463684F666600446F6F725E
:100EB00020646561637469766174656400504952A9
:100EC0002064656163746976617465640061645F60
:100ED0006C65644F66660061645F6C65644F6E00AC
:100EE000446F6F7220616374697665003500446FEA
:100EF0006F7220636C6F736564003400446F6F72AF
:100F0000206F70656E6564200050495220616374E3
:100F1000697665004D6F74696F6E206465746563F2
:100F20007465640032004D6F74696F6E20656E6485
:100F30006564210033000D00020003000100010080
:100F4000000000F10396048703B8039803E103004F
:00000001FF
