:100000000C9462000C948A000C948A000C948A0070
:100010000C948A000C948A000C948A000C948A0038
:100020000C948A000C948A000C948A000C948A0028
:100030000C948A000C948A000C948A000C948A0018
:100040000C94E8040C948A000C94E9010C94370297
:100050000C948A000C948A000C948A000C948A00F8
:100060000C948A000C948A000000000024002700F1
:100070002A0000000000250028002B0000000000DE
:1000800023002600290004040404040404040202DA
:100090000202020203030303030301020408102007
:1000A0004080010204081020010204081020000012
:1000B0000007000201000003040600000000000029
:1000C0000000A30311241FBECFEFD8E0DEBFCDBFD9
:1000D00011E0A0E0B1E0E4EEFCE002C005900D927A
:1000E000AC37B107D9F714E0ACE7B1E001C01D921D
:1000F000A932B107E1F710E0C4ECD0E004C02297C8
:10010000FE010E946C06C23CD107C9F70E94F903A8
:100110000C9470060C940000FC0188279927E89441
:1001200021912032E9F3293010F02E30C8F32B3220
:1001300041F02D3239F4689404C00E94EA00820F25
:10014000911D219120532A30C0F31EF49095819582
:100150009F4F08954CE751E00E94B8000895FB01BD
:10016000DC018D91019080190110D9F3990B08954C
:10017000009731F4DA018D919C91009709F40EC03B
:10018000DC01FB013D912191222319F03217C9F3C3
:10019000FACF332331F4DA011D921C928827992774
:1001A00008951197AF93BF93FB013D9121913217B1
:1001B00071F4332321F488279927119702C01E92E6
:1001C0001196FA01A193B0839F918F9108952223F4
:1001D00069F7EACF7AE0979F902D879F802D910D48
:1001E00011240895CF93DF9360E071E00E94AA008C
:1001F000EC018EEF93E0BE010E946E04CE0162E03E
:1002000071E00E94AF00009751F480E090E060E060
:1002100071E00E94AA000E948C000E943601CE016B
:100220006DE071E00E94AF00009711F40E948B0115
:10023000CE0166E171E00E94AF00009711F40E94C8
:100240007F01CE0160E271E00E94AF00009711F4DF
:100250000E944701CE0169E271E00E94AF00009761
:1002600011F40E943701DF91CF9108950895809194
:100270006A010E941806019721F48091660160E0EE
:1002800003C08091660161E00E94E5050895CF9367
:10029000DF93809168010E941806EC01813091057E
:1002A000B1F48091660161E00E94E50580917403DC
:1002B00090917503892B01F5D0937503C093740356
:1002C0008EEF93E065E371E00E946E0415C08091AB
:1002D000660160E00E94E5058091740390917503CA
:1002E000019751F48EEF93E065E471E00E946E0493
:1002F0001092750310927403DF91CF9108958EEFE1
:1003000093E063E571E00E946E048091660160E015
:100310000E94E50508958EEF93E06DE571E00E947F
:100320006E048091660161E00E94E5050895CF9317
:10033000DF93CEE7D1E08EEF93E06AE0AE0123EFEA
:1003400031E00E94B3049093730380937203CE0153
:100350000E94F2008091720390917303892B61F0E7
:1003600084EF91E0FE019C01119221503040E1F7B1
:100370001092730310927203DF91CF9108950F933F
:100380001F930EEF13E0C80140E855E260E070E013
:100390000E947202C80140E157E260E070E00E94F2
:1003A00081048091660161E00E9479058091680175
:1003B00060E00E94790580916A0160E00E94790501
:1003C00080916A0161E00E94E5051F910F910895F7
:1003D00008951F920F920FB60F9211242F933F93FF
:1003E0004F938F939F93EF93FF938091C00082FD73
:1003F0001DC04091C6002091B6033091B7032F5F16
:100400003F4F2F7330708091B8039091B903281734
:10041000390771F0E091B603F091B703EA58FC4F49
:1004200040833093B7032093B60302C08091C60087
:10043000FF91EF919F918F914F913F912F910F904D
:100440000FBE0F901F901895E0910A04F0910B04D5
:10045000E05CFF4F8191919120813181821B930B50
:100460008F739070892B11F00E94E80108951F92FC
:100470000F920FB60F9211242F933F938F939F9358
:10048000EF93FF932091FA033091FB038091FC03DB
:100490009091FD032817390731F48091C1008F7DB9
:1004A0008093C10014C0E091FC03F091FD03E65479
:1004B000FC4F20818091FC039091FD0301968F7386
:1004C00090709093FD038093FC032093C600FF91EE
:1004D000EF919F918F913F912F910F900FBE0F90B1
:1004E0001F901895AF92BF92DF92EF92FF920F93F9
:1004F0001F93CF93DF93EC017A018B01DD24403011
:1005000081EE580780E0680780E0780711F0DD246D
:10051000D39491E0A92EB12CEC89FD89DD2069F0FE
:10052000C50108A002C0880F991F0A94E2F78083D2
:1005300060E079E08DE390E005C0108260E874E847
:100540008EE190E0A80197010E94480621503040BA
:1005500040405040569547953795279580E120308B
:10056000380720F0DD2011F0DD24D6CFE889F989A5
:100570003083EA89FB89208319A2EE89FF894081B3
:1005800021E030E0C9010C8C02C0880F991F0A9449
:10059000E2F7482B4083EE89FF894081C9010D8C29
:1005A00002C0880F991F0A94E2F7482B4083EE8916
:1005B000FF894081C9010E8C02C0880F991F0A94DF
:1005C000E2F7482B4083EE89FF8980810F8C02C0BF
:1005D000220F331F0A94E2F7209528232083DF910E
:1005E000CF911F910F91FF90EF90DF90BF90AF9050
:1005F0000895DC011C96ED91FC911D97E05CFF4F86
:100600002191319180819181281B390B2F7330709A
:10061000C9010895DC011C96ED91FC911D97E05CE9
:10062000FF4F20813181E054F040DF01AE5BBF4FCE
:100630008D919C9111972817390719F42FEF3FEFEF
:1006400007C08D919C91E80FF91F8081282F30E021
:10065000C9010895DC011C96ED91FC911D97E05CA9
:10066000FF4F20813181E054F040DF01AE5BBF4F8E
:100670008D919C9111972817390719F42FEF3FEFAF
:1006800010C08D919C911197E80FF91F20818D91D9
:100690009C91119701968F73907011969C938E93F5
:1006A00030E0C9010895DC0191968C9191978823DF
:1006B00039F05496ED91FC915597808186FFF9CFE2
:1006C00091961C920895CF93DF93EC01EE85FF8500
:1006D000E05CFF4F20813181E054F0402F5F3F4FBD
:1006E0002F733070DF01AE5BBF4F8D919C911197DE
:1006F00028173907D1F3E05CFF4F80819181E054E6
:10070000F040E80FF91F6083EE85FF85E05CFF4F46
:1007100031832083EE89FF89208181E090E00F8C76
:1007200002C0880F991F0A94E2F7282B208381E0EA
:1007300089A3EC89FD8980818064808381E090E0D9
:10074000DF91CF910895109201041092000488EE79
:1007500093E0A0E0B0E08093020490930304A093A0
:100760000404B093050480E791E09093FF03809325
:10077000FE0386E793E090930B0480930A048AEBD0
:1007800093E090930D0480930C0485EC90E090939B
:100790000F0480930E0484EC90E0909311048093F6
:1007A000100480EC90E0909313048093120481EC89
:1007B00090E0909315048093140482EC90E0909361
:1007C00017048093160486EC90E0909319048093AC
:1007D000180484E080931A0483E080931B0487E06C
:1007E00080931C0485E080931D0481E080931E04A7
:1007F0000895CF93DF930E943E050E94BF01C4E29B
:10080000D2E00E9497012097E1F30E942402F9CFE1
:10081000CF92DF92EF92FF920F931F93CF93DF93CC
:100820007C016B018A01C0E0D0E00FC0D6016D9160
:100830006D01D701ED91FC910190F081E02DC70190
:100840000995C80FD91F015010400115110571F706
:10085000CE01DF91CF911F910F91FF90EF90DF902C
:10086000CF900895EF92FF920F931F938C01DC01BC
:10087000ED91FC910190F081E02D6DE009957C01F6
:10088000D801ED91FC910190F081E02DC8016AE062
:1008900009959C012E0D3F1DC9011F910F91FF90DD
:1008A000EF900895CF93DF93EC016115710519F472
:1008B00020E030E00FC0DB010D900020E9F7119738
:1008C000A61BB70BE881F9810280F381E02DAD0111
:1008D00009959C01C901DF91CF910895EF92FF9294
:1008E0000F931F937C010E9452048C01C7010E9448
:1008F0003204080F191FC8011F910F91FF90EF904C
:100900000895FC0144835583668377830895CF93CC
:10091000DF93EC010E943005688779878A879B877F
:10092000E881F9810680F781E02DCE0109959C01CF
:1009300097FF15C00E943005288539854A855B855B
:10094000621B730B840B950B2C813D814E815F8163
:10095000621773078407950718F32FEF3FEFC9015C
:10096000DF91CF910895AF92BF92CF92DF92EF9235
:10097000FF920F931F93CF93DF935C017A0189015C
:100980002115310519F4C0E0D0E016C0C0E0D0E078
:10099000C62EDD24C7FCD0940CC0C5010E9487047C
:1009A00097FD0AC08C159D0539F0F70181937F01F1
:1009B0002196C017D10788F3CE01DF91CF911F9107
:1009C0000F91FF90EF90DF90CF90BF90AF90089580
:1009D0001F920F920FB60F9211242F933F938F9374
:1009E0009F93AF93BF938091240490912504A0918D
:1009F0002604B0912704309128040196A11DB11D51
:100A0000232F2D5F2D3720F02D570196A11DB11DED
:100A1000209328048093240490932504A093260413
:100A2000B09327048091200490912104A091220486
:100A3000B09123040196A11DB11D809320049093D1
:100A40002104A0932204B0932304BF91AF919F91FE
:100A50008F913F912F910F900FBE0F901F9018957F
:100A60008FB7F894209124043091250440912604F6
:100A7000509127048FBFB901CA010895789484B5B5
:100A8000826084BD84B5816084BD85B5826085BD8A
:100A900085B5816085BDEEE6F0E080818160808370
:100AA000E1E8F0E010828081826080838081816053
:100AB0008083E0E8F0E0808181608083E1EBF0E01A
:100AC000808184608083E0EBF0E0808181608083BE
:100AD000EAE7F0E0808184608083808182608083A7
:100AE0008081816080838081806880831092C100D2
:100AF0000895CF93DF93482F50E0CA0186569F4F49
:100B0000FC0134914A575F4FFA018491882369F1BF
:100B100090E0880F991FFC01E859FF4FA591B4910F
:100B2000FC01EE58FF4FC591D491662351F42FB7C5
:100B3000F8948C91932F909589238C9388818923A5
:100B40000BC0623061F42FB7F8948C91932F90957D
:100B500089238C938881832B88832FBF06C09FB7FE
:100B6000F8948C91832B8C939FBFDF91CF91089544
:100B7000833071F0843028F48130A1F0823021F587
:100B800014C08630B1F08730D1F08430E9F404C06D
:100B9000809180008F7703C0809180008F7D80934B
:100BA0008000089584B58F7702C084B58F7D84BDA1
:100BB00008958091B0008F778093B0000895809160
:100BC000B0008F7D8093B0000895FF920F931F9324
:100BD000F62E482F50E0CA0182559F4FFC01249108
:100BE000CA0186569F4FFC0114914A575F4FFA0184
:100BF00004910023C9F0222319F0822F0E94B80526
:100C0000E02FF0E0EE0FFF1FEE58FF4FA591B491DB
:100C10009FB7F894FF2021F48C911095812302C096
:100C20008C91812B8C939FBF1F910F91FF90089502
:100C30000F931F93482F50E0CA0182559F4FFC012C
:100C40002491CA0186569F4FFC0104914A575F4F79
:100C5000FA011491112319F420E030E015C0222389
:100C600019F0822F0E94B805812F90E0880F991FFC
:100C700084589F4FFC01A591B4918C9120E030E005
:100C8000802311F021E030E0C9011F910F910895F8
:100C9000A1E21A2EAA1BBB1BFD010DC0AA1FBB1F80
:100CA000EE1FFF1FA217B307E407F50720F0A21BF2
:100CB000B30BE40BF50B661F771F881F991F1A945F
:100CC00069F760957095809590959B01AC01BD0189
:100CD000CF010895EE0FFF1F0590F491E02D0994C8
:040CE000F894FFCFB6
:100CE400200061645F6D6F6546756E630061645FCB
:100CF4006C65644F6E0061645F6C65644F6666008A
:100D040061645F5049526F6E0061645F5377697428
:100D140063684F6E004D6F74696F6E20646574650F
:100D240063746564004D6F74696F6E20656E6465ED
:100D340064210061645F6C65644F66660061645F92
:100D44006C65644F6E000D0002000300000000009B
:0C0D540063030804F9022A030A03530396
:00000001FF
